:100000000010002021050000733C0000733C00003C
:10001000733C0000733C0000733C0000733C000024
:10002000733C0000733C0000733C0000733C000014
:10003000733C0000F4420000733C0000733C00007D
:10004000733C0000733C0000733C0000733C0000F4
:10005000733C0000733C0000733C0000733C0000E4
:10006000733C00007D0A0000733C0000733C0000FC
:10007000150500006F3C0000733C0000733C00005D
:10008000733C0000733C0000733C0000733C0000B4
:10009000733C0000733C0000733C0000733C0000A4
:1000A000733C0000733C0000733C0000733C000094
:1000B000733C0000733C0000733C0000733C000084
:1000C000733C0000733C0000733C0000733C000074
:1000D000733C0000733C0000733C0000733C000064
:1000E000733C0000733C0000733C0000733C000054
:1000F000733C0000733C0000733C0000733C000044
:10010000733C0000733C0000733C000000000000E2
:1001100001F0FF01102A2BDB10F0070F08D010F8B8
:10012000013B013A8B422DD010F0070F42B3F6D1BC
:10013000F0B441EA012141EA014122F007047FF0D5
:1001400000070023F0E80256083C85EA010586EA2C
:10015000010685FA47F5A3FA87F586FA47F6A5FA68
:1001600087F68EB9EED1F0BC01F0FF0102F0070274
:1001700032B110F8013B013A83EA010313B1F8D11F
:100180000020704701387047002D06BF3546033800
:10019000073815F0010F07D1013015F4807F02BF39
:1001A000013015F4C03F0130F0BC0138704700BF8A
:1001B00010B5054C237833B9044B13B10448AFF3A1
:1001C00000800123237010BD8C100020000000006F
:1001D0004447000008B5034B1BB103490348AFF384
:1001E000008008BD0000000090100020444700007F
:1001F000A3F5803A704700BF174B002B08BF134B85
:100200009D46FFF7F5FF00218B460F461348144A21
:10021000121A03F07DFE0E4B002B00D098470D4BB9
:10022000002B00D098470020002104000D000D484D
:10023000002802D00C48AFF3008002F0DFFB200062
:10024000290003F001FD02F0B3FB00BF000008002D
:100250000000000000000000001000208C100020B2
:1002600048130020000000000000000070B5264C7C
:100270002068002392B019460222806802F086FCB2
:100280002068002302221946406802F07FFC1F4BC1
:1002900001AA03F11806154618685968144603C4E4
:1002A0000833B3422246F7D119889B78A370218086
:1002B000284603F035FE164C02462946206803F016
:1002C00033FD206802F022F8124B08AA03F1200641
:1002D000154618685968144603C40833B3422246C9
:1002E000F7D1998818689B79A3712060A18028466E
:1002F00003F016FE29460246002003F015FD0648CD
:1003000002F03CFC12B070BD1C10002051420000F5
:10031000001000206C4200000042000038B5134C71
:10032000237823B1124802F08DFB0023237002F0E2
:1003300053FB024640B200280CDD0E4C0D282378FA
:1003400001D00A2807D10C490C480025CD5402F0F1
:1003500079FB257038BD4E2B9FBF0749CA54013326
:100360002370BDE8384002F085BB00BF801000203C
:10037000A4420000F2120020A212002093420000CA
:1003800038B501F04DF80E480E4D012100F05EFC2D
:10039000012201241146104600F0B0FF22462146FA
:1003A0002046C5F8804000F0A9FF2046C5F88440EB
:1003B0002246214600F0A2FFC5F88840002038BD43
:1003C00030253E0000400E4008B51D4B01225A6406
:1003D00001F02EFE1B4B90B94AF6E852C3F890216B
:1003E000D3F8982142F00402C3F89821C3F8900191
:1003F000D3F8642142F40052C3F8642101E00128DB
:10040000F6D0114A136A23F4441343F48813136299
:10041000A2F58042136843F48073136002F54052E2
:10042000D2F8A43143F4F843C2F8A43101F050FFEC
:1004300001F038FFFFF7A4FFBDE8084003F066BCF9
:1004400000000E4000300E4000400E4030B5224DFE
:100450000FCD97B00FAC0FC495E8070084E80700F4
:100460001022002105A803F053FD1C4A1C4BCDE9C6
:10047000032301238DF8173002238DF81930102241
:10048000032300210BA88DF81B3003F041FD154B11
:1004900015484FF44021CDE909130C238DF82C3079
:1004A0000D238DF82D30114B0C9350230D9340F2FA
:1004B0000113ADF838300E4B00930FAA03AB09A916
:1004C00002F0C2F9044618B10A48862103F0D8FBAD
:1004D000204617B030BD00BFD842000000000140E8
:1004E000004204001C000140F4100020F312002020
:1004F000A8100020A742000008B5FFF7A7FF28B109
:10050000BDE8084002489A2103F0BABB08BD00BF0D
:10051000A7420000014803F09CBC00BFF41000207B
:1005200008B500F073F8124B12498B4212D3124BEC
:10053000124900208B4218D3FFF75EFE186850F86E
:100540002240586840F82240013298688242F5D330
:100550000C33EAE70022F8E71C6844F82200013275
:100560005C68A242F8D30833E4E70022F8E700BF52
:100570004C4700005847000058470000584700000B
:100580000048704700F04902104AD2F8943003F056
:100590000703023B032B13D8DFE803F00C14020E11
:1005A0000B4B1B68D2F80001C0F304200130B3FBF1
:1005B000F0F07047074BF4E7074B1B685B08F1E767
:1005C000054BEEE74FF40043ECE700BF00400E4060
:1005D00010100020081000200C10002008B5FFF7B4
:1005E000D3FF054BD3F80831C3F308230133B0FB25
:1005F000F3F0024B186008BD00400E4004100020CC
:10060000014B1868704700BF08100020044B054AD2
:100610009A60D3F8882042F47002C3F888207047AB
:1006200000ED00E000000000014B1868704700BFBB
:100630001010002005490A681318054883428CBF32
:100640004FF0FF320B601046704700BF14100020BF
:10065000000002202DE9F04F9A46554B85B01B78DB
:10066000DDF83C909DF844B0DDF8508006460F461A
:100670001546002B00F08B80072A00F28A800E9B23
:10068000002B00F08680B9F1000F00F08280129BF1
:10069000B3F5006F7DDC012802D1109B002B78D0D0
:1006A000444B03EB05131B7B002B74D0424C1022F0
:1006B0000021684603F02CFC04EB45141022002FA7
:1006C00057D13946204603F023FC43F210036380E0
:1006D000BBF1000F03D1E37843F00303E370364A24
:1006E0000E9BCDF800A002EB451CCCE90193129BB8
:1006F000013BC3F30A009DF84C30690103F003038A
:100700009B0643EA001E53582C4818404EEA00034B
:10071000012E535041D11323CCF80C309CE80F002C
:100720000CF1100E8EE80F00DCF81C20109BCCF8AA
:1007300014306FF0030161F39F02012FCCF81C20ED
:1007400003D1CCF81890CCF804301A4A290102EBF6
:10075000051342F801800027159A5A6028469F60C9
:100760005E732246694601F09BFB384605B0BDE842
:10077000F08F0021204603F0CBFB4FF444736380DD
:10078000BBF1000FABD1E37843F03003A6E70C4890
:10079000ECE70C48EAE70C48E8E7B8F1000FD4D1E1
:1007A0009CF8023068F304138CF80230CDE700BFE8
:1007B000431300200C1100208C1100200F80FFF348
:1007C000028000F0018000F0078000F038B5124B85
:1007D0001B780546DBB1E0B103F079FA0F4A00233C
:1007E0001146147B54B92B601A0101EB0313012548
:1007F0008C501D7303F071FA204638BD0133082B6D
:1008000002F11002EDD103F068FA0548F5E705485A
:10081000F3E70548F1E700BF431300200C11002067
:10082000048000F0028000F0018000F013B503F0B6
:100830004EFA0C4A0023147B7CB90133082B02F1D9
:100840001002F8D1019001F0B7FA074B01981C7023
:1008500003F043FA204602B010BD03F03EFA03480D
:10086000F9E700BF0C11002043130020058000F0C1
:100870000D4B1B7810B5044693B1072812D803F02E
:1008800026FA0A4B03EB04131A7B2AB100241C73CB
:1008900003F023FA204610BD03F01FFA0448FAE7DC
:1008A0000448F8E70448F6E7431300200C11002041
:1008B000068000F0028000F0018000F013B5164BB6
:1008C0001868019000238DF8043003F000FA134BF0
:1008D0001C7824B103F001FA114802B010BD0122C6
:1008E0001A7003F0FAF90F4B1C731C7783F82C4035
:1008F00083F83C4083F84C4083F85C4083F86C40BC
:1009000083F87C4004230DEB03008DF8073001F0E1
:1009100085FA2046E1E700BF44430000431300206E
:10092000038000F00C1100200A4A127808B55AB171
:1009300007280BD8084A02EB00131B7B43B10021A8
:1009400001F050FA002008BD0448FCE70448FAE72B
:100950000448F8E7431300200C110020028000F047
:10096000018000F0078000F00A4A127808B55AB1F9
:1009700007280BD8084A02EB00131B7B43B1012167
:1009800001F030FA002008BD0448FCE70448FAE70B
:100990000448F8E7431300200C110020028000F007
:1009A000018000F0078000F00A4A127808B552B1C1
:1009B00007280AD8084A02EB00131B7B3BB101F061
:1009C000F5FA002008BD0548FCE70548FAE70548A8
:1009D000F8E700BF431300200C110020028000F054
:1009E000018000F0078000F00D4B1B7893B10728C1
:1009F00012D889B10B4B03EB00131B7B73B10A4B6D
:100A00001A6E012303FA00F010401ABF00200B7089
:100A1000087070470548704705487047054870479B
:100A2000431300200C11002000200E40028000F033
:100A3000018000F0078000F00B4A127810B50C46D8
:100A400062B107280CD859B1084A02EB00131B7B8E
:100A500043B101F0CBFA2070002010BD0448FCE740
:100A60000448FAE70448F8E7431300200C1100207B
:100A7000028000F0018000F0078000F02DE9F047CF
:100A80001E4E1F4C326EF36E12EA03080FD54FF064
:100A90000043B3667068C0F30220030104EB001248
:100AA000E3584BB3BDE8F047526800211847DFF820
:100AB00054900127002518EA070F16D02368B7665F
:100AC0009BB1A16862680131A16028469847637BA9
:100AD000012B0AD148B909EB45131A7B60F3410297
:100AE0001A731A7F60F341021A770135082D4FEA15
:100AF000470704F11004DED1BDE8F08700200E4066
:100B00000C1100208C1100200C4B984210D90C4B7A
:100B1000984210D9022201230A490B640A49D1F8EC
:100B2000003123F0807343EA0263C1F8003170475B
:100B300000221346F0E70122FBE700BF0048E8016E
:100B40000090D0030000C84300400E4038B5114B60
:100B50005B68114B00221C46C9B21D798D4202D13F
:100B60001D68854212D20132052A03F10803F4D12F
:100B70000A4841F2E77103F083F8032205494B6804
:100B800023F0407343EA02634B6038BD04EBC202BA
:100B90005279F3E700000E4008440000484300008B
:100BA0001F2810B5044604D903484FF4B67103F06A
:100BB00067F80120A04010BD8E43000070B5084CBE
:100BC00041F67136256C2664FFF7DAFC0021FFF749
:100BD000BDFFADB2B5421CBF0023236470BD00BF92
:100BE00000000E40044BDB6B5B0604D4034AD2F8D2
:100BF000C830002BFBD1704700300E400000C643C8
:100C000008B5FFF7EFFF024B5868C0F3014008BD7D
:100C100000300E40044BD3F84421D20703D4D3F85C
:100C200040211042FBD1704700400E4070B5064C89
:100C300041F67136256C2664FFF788FFADB2B542E8
:100C40001CBF0023236470BD00000E4038B5C0F304
:100C50000323013B092B24D8DFE803F02A2D2323AB
:100C6000051619231C20154C0023C0F3043513B1BD
:100C70001846FFF7CFFF04F1424404F5801405EB5A
:100C8000C404A400216038BD0D4C0123EDE70D4CD8
:100C90001023EAE70C4C4FF48033E6E70B4C0023BB
:100CA000E3E7BDE838400A4841F6835102F0E8BF67
:100CB000084C0023D9E7084C0023D6E7B0400E408B
:100CC000E0400E40E8400E40F0400E4050410E40E3
:100CD0004843000000400E40C0400E4008B5C0F33D
:100CE0000313013B092B60D8DFE803F0050B0F1954
:100CF0005F5F1F233C532E4BD3F80001C0F3042049
:100D000008BD2B4BD3F81401F8E7294BD3F80001A9
:100D1000C0F300600130FFF743FF0138F0E7244BD8
:100D2000D3F80C01C0F30820EAE7214BD3F80801FF
:100D3000F8E7204B984209D01F4B98420CD041F65F
:100D400027711E4802F09CFF0020D9E7184BD3F80A
:100D5000200100F00F00DEE7154BD3F82001C0F3AF
:100D60000110D8E7164B984208D003F5B01303F5ED
:100D70008053984206D041F64B71E2E70C4BD3F812
:100D80002801ECE70A4BD3F82801C0F30120043016
:100D9000C1E70C4B984205D1054BD3F8300100F068
:100DA0000300ADE741F65A71CBE741F67F71C8E722
:100DB00000400E408006160080162E0048430000BA
:100DC00090171A00A009140000F00F00013808B5B0
:100DD000072844D8DFE800F0040F1943232D4335DA
:100DE000264BD3F8943003F00703023B052B3DD884
:100DF000234AD05C08BD214BD3F8803003F00703B1
:100E0000013B032B34D81F4AF3E71C4BD3F8843043
:100E100003F00703013B032B2AD81B4AE9E7174BD2
:100E2000D3F8883003F00703013B032B20D8174A7F
:100E3000DFE7124B1B6F13F0010F0CBF07200920D7
:100E4000D8E70E4BD3F85C3103F03003202B11D0E0
:100E5000302B11D0102B14BF01200720CAE70C48FB
:100E600042F2D42102F00CFF0020C3E70520C1E7C5
:100E70000120BFE70420BDE70820BBE700400E408B
:100E8000D9430000DF430000E3430000DF430000DC
:100E90004843000038B52C4B984205460AD02B4BEE
:100EA000984207D02A4B984204D02A4841F6E601DE
:100EB00002F0E6FE2846FFF787FF234B9D420446DB
:100EC00011D0224B9D4212D0214B9D4213D1224B77
:100ED000D3F8804004F00704042C2DD8DFE804F098
:100EE0002A11151D19001C4BD3F88440F2E71A4B48
:100EF000D3F88840EEE7174841F6151102F0C0FE1E
:100F0000EAE7BDE8384002F0B5BEBDE83840FFF77B
:100F10008BBBBDE8384002F0B0BEFFF735FB0E4B8F
:100F20000446D3F80001C0F300600130FFF738FE3B
:100F3000B4FBF0F4204638BD064841F6671102F0D4
:100F40009FFE0024F6E700BF0300200005002400F8
:100F500002001E004843000000400E4038B500F477
:100F60007813B3F5B01F05467FD02ED8B3F5402FC8
:100F700069D011D8B3F5802F54D006D843B1B3F55A
:100F8000003F5AD041F6B3611AE0B3F5202FF9D1F2
:100F9000BDE83840FFF7F8BAB3F5801F00F0A28033
:100FA000B3F5A01F57D0B3F5602FEBD15B48FFF727
:100FB0000BFF072800F096800928E9D041F2A961CB
:100FC000574802F05DFE002036E0B3F5381F5AD0D6
:100FD00013D8B3F5001F5FD00AD8B3F5D01F5DD08A
:100FE000B3F5F01FCED14F48BDE83840FFF752BFF0
:100FF000B3F5101FC6D14C48F6E7B3F5481F57D0DC
:10100000B3F5781F00F08280B3F5401FBAD147488E
:10101000FFF740FF464B0446D3F82801C0F30120F8
:1010200004302BE0FFF7B0FA414BD3F80C31C3F397
:1010300008230133B0FBF3F038BDFFF7A5FA3C4BB2
:10104000D3F80831F3E7FFF79FFA394BD3F814319F
:10105000C3F30423EDE73448FFF71CFF344BD3F808
:10106000303103F00303D840E6E72E48FFF712FFC4
:101070002F4B0446D3F8200100F00F00FFF790FD3E
:10108000B4FBF0F0D8E72748FFF704FF284BD3F86C
:101090002031C3F30113E6E72448A5E72348FFF70F
:1010A000F9FE234B0446D3F82801C0F30110E5E70D
:1010B0002048FFF789FE0138072824D801A353F8F8
:1010C00020F000BFC70F000007110000071100004B
:1010D000EB1000000711000007110000E5100000F0
:1010E000F3100000144B1868A6E7BDE83840FFF77E
:1010F00087BAFFF749FA0E4BD3F80031C3F3042344
:1011000003FB000098E74FF4B75159E7FFF73CFAAB
:101110000446284602F0CFFDB2E700BF06000E00ED
:101120004843000002001E000500240003002000C8
:1011300000400E40B80032001810002038B50C46B0
:1011400004287BD8DFE800F06403451B3000B1F5CC
:10115000007F04D33D4842F68D4102F091FD3C4AA8
:10116000C4F30804D2F86838002BFBD1394A136A5B
:1011700023F4FF7323F001032343136238BD7F2957
:1011800004D9324842F69A4102F07AFD304A04F01E
:101190007F01D2F86038002BFBD12E4B1C6924F064
:1011A0007F040C431C61E9E77F2904D9274842F6F4
:1011B000B54102F065FD264A04F07F01D2F864389B
:1011C000002BFBD1234B9C6924F07F040C439C61D2
:1011D000D4E7204DD5F890305B0704D51B4842F684
:1011E000C54102F04DFD6B6A23F0300343F010035C
:1011F0006B62C4F3C311CB1C2A6B17490F2B01EA96
:10120000020128BF0F23214341EA03712963B5E797
:101210007F2904D90D4842F6E04102F031FD4F2C00
:101220000B4A28BF4F24D2F87438002BFBD1094B4E
:10123000996B21F07F010C439C639FE7BDE8384028
:10124000024842F6EE4102F01BBD00BF48430000D9
:101250000020C84300400E4000F8FF0F022810B5E0
:101260000C4604D0144842F6065102F009FD134B17
:101270005B6A13F0300F1BD0202C16D0302C17D007
:10128000B4B10D4842F6215102F0FAFC0C4B0B4A66
:10129000D2F8901033EA0101FAD15B024ABFD2F8CA
:1012A000A0000120C0F3802010BD4FF40003EEE742
:1012B0004FF44003EBE700BF4843000000400E40FE
:1012C000FF33E107022808B50CD129B1094B4FF4CF
:1012D0008060C3F8A80059664AB1BDE80840022002
:1012E000FFF7BCBF044842F6575102F0C9FC012089
:1012F00008BD00BF00400E404843000004282DE90F
:10130000F04704460F4691461FD83D4B3D4A13F81F
:1013100000A03D4B13F80080F1B93C4B33F810307E
:101320001366012303FA08F8D2F8903013EA080F85
:10133000FAD1B9F1000F5AD00125324A05FA0AF55F
:10134000D2F890302B42FBD151E0BDE8F047304855
:1013500042F6D23102F094BC2E4B022833F81060D2
:1013600047D1536A13F0300F43D12B4BDB6B5A0537
:1013700004D4274842F6E13102F082FC214A536A44
:10138000DB0705D5536A23F0300343F010035362A3
:10139000224D1C4BA8441E664FEA8808D8F800303E
:1013A000002BFBD0B9F1000F21D05544AD002B68C4
:1013B000002BFCD0022C1AD1CFB1124F796A11F058
:1013C000010118D0012220212046FFF77BFFD7F82A
:1013D0009C40012200210220FFF790FFC4F30A0184
:1013E0000220FFF7ABFE3E662B68002BFCD0BDE869
:1013F000F0870027CCE72046FFF730FFE7E700BF84
:10140000E743000000400E40EC430000FC430000B6
:1014100048430000F243000000300E408004F21008
:10142000184B70B51C68184B9C4227D900212046E8
:1014300000F040F91548FFF767FB01221146032031
:10144000FFF75CFFFFF7BAFB0CB1FFF7CBFB104BCC
:1014500001265E67FFF798F8FFF756FBFFF7BEF827
:101460000546FFF7CDFB01462846FFF7DFFB3CB9F9
:1014700031462046BDE8704000F01CB90024D9E791
:1014800070BD00BF0C100020002D31010148E801A3
:1014900000400E40034BD86B80F04000C0F380103A
:1014A000704700BF00300E4038B542EA0323B3F561
:1014B000007F05460C463ED019D8B3F5807F36D064
:1014C0000AD883B3012B21D01F4840F6562102F0E1
:1014D000D7FB002213461FE040F201129342F3D1E2
:1014E0001A4BD3F824321A0EC3F3074314E0B3F5B2
:1014F000407F24D040F20132934210D040F20122CA
:101500009342E1D1114BD3F8283202E00F4BD3F8CC
:101510002432C3F30722DBB22B60226038BD0B4BB1
:10152000D3F82832DFE7094BD3F81C32F1E7074B39
:10153000D3F81C32D7E7054BD3F82032E9E7034B49
:10154000D3F82032CFE700BF304400000081E00F25
:1015500008B5FFF79FFF20B1024AD2F8C830002B30
:10156000FBD108BD0000C6431A4B022810B5D3F8C2
:1015700030320C4612D0032813D0012814BFDBB23E
:10158000C3F307231B0323F47042ECB95AB140F6AE
:10159000E511114802F074FB002010BDC3F30743AE
:1015A000F0E71B0EEEE70D49CA6E22F470421343BA
:1015B000CB660120F1E70949D1F8EC2022F4704212
:1015C0001343C1F8EC30F4E7002AF4D040F6F111EF
:1015D000DFE700BF0081E00F3044000000300E4024
:1015E0000378134A002B437870B514BF04260026F5
:1015F000002B8378946914BF02250025002B037902
:1016000024F03F0443EA0403C47814BF08210021F6
:10161000012C08BF43F0010333432B430B43936179
:101620001368417923F4403343EA0143136070BDEA
:1016300000300E40F8B504460F46FFF72BFF78B395
:10164000FFF786FF174B5B68C3F301439C4227D02B
:10165000154BD3F80061FEF797FF022C05460FD11A
:10166000124BC6F3042606FB00069E4204D910481E
:1016700040F27C7102F004FB02212846FFF7D6FA03
:10168000C4F1020210239340064A13610FB1FFF721
:101690005FFF2CB921462846BDE8F840FFF7C6BADF
:1016A000F8BD00BF00300E4000400E40002D31015B
:1016B0003044000013B50246FFF7ECFEC8B152B942
:1016C0000D4B0191D3F80041FEF75EFFC4F30422F5
:1016D000019902FB0002094B1B7843B1084B9A4267
:1016E00005D8022002B0BDE81040FFF7A3BF0020DC
:1016F000F8E702B010BD00BF00400E4044130020C8
:10170000002D3101224B4AF6E85210B5596B5A634D
:101710009A6FD207FCD41B6C13F003031EBF1D4A43
:101720000124C2F8B44A834204D110B9194BC3F85A
:10173000B40A10BD032B00D09BB9431E012B10D857
:10174000134A4FF40023D362936FDB07FCD4136C6E
:1017500023F0030343F0010313640D4A536A1C038F
:10176000FCD50B4B9A6FD207FCD41A6C22F0030203
:1017700002431A649A6F12F00102FBD10038054C43
:1017800018BF01200129C4F8B40A08BF5A63D0E782
:1017900000300E400000C6432DE9F04FA0F5E16394
:1017A00089B00024B3F5966FCDE90244CDE9044435
:1017B000CDE9064406468A46934605D940F6DF3110
:1017C000554802F05DFAA3E0B0F5E16F534B8CBFD2
:1017D0000122002249D1D3F81832C3F30721DBB22A
:1017E000079104934FF416754FF4966748E0BBF1E8
:1017F000000F0ED0D9F85C2022F4FE4222F0020243
:10180000B6F5E16F42EA012218BF02200243C9F88F
:101810005C20BAF1000F26D020460021FFF7A4FE7D
:10182000044610B940F63C41CAE701214046FFF7A3
:101830009BFE044610B940F64441C1E7384A536E56
:10184000BD4238BF3D4623F4FF73E72D23F001036B
:1018500028BFE725B6F5E16F18BF43F0010343EA5F
:101860004503536654E0012452E0D3F81832190EB0
:10187000C3F30743079104934FF496654FF4E16770
:10188000DFF89C90D9F84C400192C4F301742346D0
:1018900005A902A8FFF708FED9F8EC30019AC3F3B6
:1018A0000128434606A903A8FFF7FEFD049BF01B91
:1018B000079FF91A4143B1FBF5F299182CBF012398
:1018C00000238F421ED3EBB9069A039FD31B4343D9
:1018D000B3FBF5F3FF182CBF01230023BA4211D349
:1018E00083B9059B029AA3EB020C00FB0CF0B0FB42
:1018F000F5F555192CBF01200020AB4202D300287A
:101900003FF475AF044840F62D4102F0B9F90024C8
:10191000204609B0BDE8F08F304400000081E00FA0
:1019200000300E40334A08B5136FD16C11F0010F2F
:1019300003F0060344D0002B42D0132857D91438A3
:1019400013288CBF102308232A49013BCA6C1803B3
:1019500022F47F4240EA03231343CB64264BCA6C34
:101960001B88C2F303222833013202EB820003EB0F
:101970005303B3FBF0F3C86C013B072B28BF0723CD
:1019800020F0EE6040EA036343F48013CB641B4B0A
:10199000B3F90030002B12DB03F12800C0F34E0333
:1019A0000344500800EB4202B3FBF2F20B6D072A2E
:1019B00028BF072223F0700343EA02120A6508BD1C
:1019C000D16C01F00101194304D109280FD90A385B
:1019D0000928B6E7D26CD20702D50BB92728B0E7A1
:1019E000074840F6824102F04BF90023ACE704239C
:1019F000AAE700BF00300E409E120020A012002077
:101A0000304400000C4BD3F8803910B5044633B98C
:101A1000012804D909484FF44A6102F031F9084A13
:101A2000136F23F0070323431367064BBDE81040F1
:101A30001888FFF777BF00BF0000C643304400009E
:101A400000300E409C12002038B55A4B02229A6397
:101A50009B6B03F00F039342044607D0564840F6B1
:101A60007A2102F00DF90025284638BD0389C82BDC
:101A700004D9514840F6842102F002F9A288238952
:101A80009A4204D94C4840F6852102F0F9F8B4F99D
:101A90000C30C82B04DD484840F6862102F0F0F8EF
:101AA0006378012B55D1A388C82B04D940F68A212D
:101AB000414802F0E5F8E28842F210739A4204D9F4
:101AC0003D4840F6972102F0DBF8E3884A2B48D9DD
:101AD000B3F5FA7F47D340F6C312934294BF4FF059
:101AE00000524FF040523349B4F90C00CB6C23F054
:101AF000405323F001030028A8BF43F00103134320
:101B0000CB64D1F8EC30A28843F44073C1F8EC30D8
:101B10002A4B1A80CB6E43F08073CB66284BD3F8E8
:101B2000800900B10420FFF76DFF264B2189198041
:101B3000254BB4F90C20A0881A80FFF7F3FEA37B95
:101B4000A3B1012B22D01C4840F6961102F098F860
:101B50000FE0022BAFD1A3880A2BACD940F68F211E
:101B6000A6E70022BFE74FF08052BCE7114B174AAF
:101B70009A65012260881146FFF70EFE054640B9BE
:101B80000D4840F6CE2102F07BF86DE7094B104A74
:101B9000EEE7084AD36B43F48063D3636078FFF7C2
:101BA000B1FDA37AA3F1200253425341044AC2F883
:101BB000943759E700300E40304400009C1200205A
:101BC0000000C6439E120020A0120020774020573C
:101BD000372110B738B50D46044640B3012829D047
:101BE00002282AD003282BD004280ED005282AD07A
:101BF000831F012B09D9082828D0092828D00A28B2
:101C000003D10723EB40DB0704D4134840F22D41F6
:101C100002F036F830200C2310FB043404F18C441D
:101C2000012104F5204401FA05F5256038BD40F294
:101C3000FF33E7E74FF6C073E4E740F6FF73E1E7F1
:101C40004FF47F43DEE74FF6FF73DBE70F23D9E75F
:101C50004FF44043D6E700BF7644000038B50D4648
:101C6000044640B3012829D002282AD003282BD0CB
:101C700004280ED005282AD0831F012B09D9082853
:101C800028D0092828D00A2803D10723EB40DB07F6
:101C900004D4134840F2FE3101F0F2FF30200C234F
:101CA00010FB043404F18844012104F5204401FAB6
:101CB00005F5256038BD40F2FF33E7E74FF6C07306
:101CC000E4E740F6FF73E1E74FF47F43DEE74FF6CA
:101CD000FF73DBE70F23D9E74FF44043D6E700BF9C
:101CE00076440000F8B50D4616461F460446C8B3B4
:101CF00001283AD002283BD003283CD004280ED03B
:101D000005283BD0831F012B09D9082839D0092881
:101D100039D00A2803D10721E940CB0704D423484E
:101D20004FF4B07101F0ACFF26B1294620466FB3E5
:101D3000FFF750FF04EB4403072D4FEA03134FF066
:101D40000F0126D8A80006FA00F28140184818446E
:101D500001F0C6FF4EBB2946204617B3BDE8F84048
:101D6000FFF738BF40F2FF31D6E74FF6C071D3E737
:101D700040F6FF71D0E74FF47F41CDE74FF6FF719A
:101D8000CAE70F21C8E74FF44041C5E7FFF766FFF8
:101D9000D0E7A5F10800800006FA00F2814005486E
:101DA000D5E7BDE8F840FFF759BFF8BDBE440000D5
:101DB00004A0004008A00040084B4FF40072C3F894
:101DC0008020BFF34F8FBFF36F8F054B0021D96683
:101DD0004FF4AA401962FEF739BF00BF00E100E0EE
:101DE00000200E40072838B505460C4603DD08489C
:101DF000772101F045FF1F2D84F0010403D9054828
:101E0000912101F03DFF044B2B449B001C6038BD29
:101E1000054500004C450000A001F11010B5044636
:101E200018B91C48912101F02BFF23781B0613F0F1
:101E3000784F03D01748922101F022FFE378072B57
:101E400003D91448A32101F01BFF01214FF4AA403C
:101E5000FEF7FCFEB4F8013022785BBA9BB243EA8D
:101E600002630D4A136000231362D36253634FF081
:101E70000043D3664FF0FF339366084A4FF4007176
:101E8000C2F88011E3785B01DBB282F8093311609C
:101E900010BD00BF0545000000200E4000E100E03D
:101EA0002DE9F041C3B20126072805460C469046AD
:101EB00006FA03F603DD3A48EC2101F0E1FE1CB915
:101EC0003748ED2101F0DCFE236823F47C1323F076
:101ED0000F031BB13248F22101F0D2FEA37A1B049A
:101EE00013F47C0F04D02E4840F2091101F0C8FE13
:101EF000E37A1B0513F07E6F04D0294840F20B11E2
:101F000001F0BEFE237B5B0513F0FE5F04D0244886
:101F100040F20D1101F0B4FE224F637BBE6630200B
:101F200000FB05702268C0F88020C0F88830E37A92
:101F3000A27A1B0543EA0243227B43EA425328F07C
:101F40000302C0F88430C0F8982001F0C0FEFB6E98
:101F50003343FB66237A13B17B6B33437B63637A32
:101F600013B1FB6A3343FB620E4B1A68237923B12A
:101F7000DB431B0263F47F431A4063790BB142EAEF
:101F80000322A3790BB122EA0302E3791A43054B3A
:101F90001A60054A9662DE63BDE8F04101F09DBE1D
:101FA0000545000000200E4000200E4410B5C3B2CD
:101FB0000124072804FA03F404DD094840F29711CC
:101FC00001F05EFE01F083FE064AD36E23EA0403AD
:101FD000D366054B1C62BDE8104001F07EBE00BF19
:101FE0000545000000200E4000200E4410B5C3B28D
:101FF0000124072804FA03F404DD0B4840F2B5116C
:1020000001F03EFE01F063FE084B1A6A224209D13C
:102010009B6A34EA03030CBF0124002401F05DFE37
:10202000204610BD0024F9E70545000000200E40C1
:10203000024BD3F8FC00000E704700BF0081E00F98
:102040002DE9F04180460E461F46154622B931481B
:102050004FF4A17101F014FE1EB92F48FEF77EFF68
:102060000646402F2AD009D8A7B1202F1CD0BDE8A2
:10207000F041284840F2891101F002BE602FF6D1EC
:10208000B5EB960F04D9234840F2831101F0F8FD17
:1020900004241DE0B5EB161F04D91E484FF4BA7195
:1020A00001F0EEFD102413E0B5EBD60F04D919486A
:1020B00040F2791101F0E4FD082409E00624B6FBA2
:1020C000F4F3AB4204D213484FF4BF7101F0D8FDD2
:1020D0006C43610801EB4616B6FBF4F40F4E203C4E
:1020E000B6EBC40F4FEAC40504D20A484FF4D071CE
:1020F00001F0C6FDD8F8003023F06003C8F80030C6
:10210000D8F8003035401F43C8F80070C8F81450A4
:10211000BDE8F0819345000040410500F8FF7F00D5
:1021200038B50E4B984204460D4610D003F5806337
:1021300098420CD003F58063984208D003F5806381
:10214000984204D006484FF4337101F099FDEB43F7
:102150005B0003F00A03E360E56038BD0000014066
:102160009345000038B51E4B1E4D984204460ED0D4
:10217000A8420CD003F50063984208D003F58063B1
:10218000984204D0184840F2424101F079FD40F6EF
:10219000AA63E36041F20502002323606260134AF0
:1021A000A3606361E364A26423666367A367E36774
:1021B0000B4B9C4209D0AC4207D003F500639C4214
:1021C00003D003F580639C4201D1002323650023E3
:1021D000AC42A36502D0064A944200D1E36538BD03
:1021E000000001400004014093450000F9FF010098
:1021F000000C014038B5294B984204460D4610D0DA
:1022000003F5806398420CD003F58063984208D0B0
:1022100003F58063984204D0214840F2FD2101F08B
:102220002FFD2046FFF79EFFAB7C1BB1236843F0D8
:1022300080432360EB7C1BB12B7D43F08003A365BF
:102240002A8A6B7B1343EA89134363602B7BD5E9AE
:1022500001122046FFF7F4FE6B7D1BB1236843F4A7
:1022600080332360AB7D1BB1236843F400432360BC
:10227000EB7D2A7E1B07120502F4E00203F0E04327
:1022800013432366636F23F030036367626F6B7ED3
:10229000134363672B78E36038BD00BF0000014043
:1022A000934500007FB5094B6A4603F110061546B9
:1022B00018685968144603C40833B3422246F7D15C
:1022C0002846FFF7C1FB002004B070BDDC450000CC
:1022D00010B50C480C4C6FF00402A02112F0800FD6
:1022E000D3B21BBF03F00F03043BA3181B1802F16A
:1022F00001020CBF83F800131976332AEED10020B7
:1023000010BD00BF00ED00E000E100E010B50446A4
:1023100001F0D6FC024B1C6001F0D6FC002010BD81
:102320008C12002010B501F0CBFC034B1C6801F0AF
:10233000CBFC204610BD00BF8C12002010B5002041
:10234000144601F0F1FC18B10248BF2101F098FCDD
:10235000204610BDEC45000038B5037A30225343C7
:1023600003F1804303F562230446D3F89450D0E987
:10237000032313449D4201D8AA4204D905484FF4CF
:102380003E7101F07DFCD4E9030303449D4218BF74
:10239000284638BD5146000030B5144687B0054682
:1023A0001046FFF7D9FF636983423CBFD4E903318C
:1023B0005B181B1A0246ABB1124903910021CDE90B
:1023C0000131012300930494D4E90013284601F05D
:1023D00058FC20B10C484FF4347101F051FC00203E
:1023E00007B030BD0122627694F82D20002AF6D085
:1023F00084F835301321E36920469847636A204604
:102400009847ECE799230000514600002DE9F0477A
:1024100088B0044688461746994601F058FC824623
:10242000002F00F0AB80237E03F0FF02002B00F0B2
:10243000DE802046FFF790FF63699842054606D18B
:10244000637E23B96B4840F27F3101F019FC666965
:10245000B5429CBFD4E90352AD18AD1BBD4228BFA5
:102460003D4601F034FC94F82D300646002B40F038
:10247000968061692A46404601F03CFD63692B4421
:1024800063612F462CE06069037803F0FD01112998
:1024900040F08280216B884205D1A3F111014B42AB
:1024A0004B4184F83430013F6369216B8B4203F167
:1024B000010308BF2363636101329542E3D1D4E98C
:1024C0000323216B1344994208BF2263216B8A4284
:1024D00001D88B4204D847484FF46D7101F0D0FB0E
:1024E000D4E9032361691344994208BF62616169B9
:1024F0008A4201D88B4204D83E484FF4717101F0F2
:10250000BFFB0023207A6376FEF70EFA20B139482C
:1025100040F2113101F0B4FB2046FFF71DFF636963
:1025200083423FD10023237694F82D30E56865611E
:1025300003B12563636A204698472F4B039300231A
:102540000293236901930123009321686368207A31
:1025500004942A4601F095FB20B1264840F22D3123
:1025600001F08EFB207AFEF7FFF920B1214840F2FE
:10257000513101F085FB304601F0AFFB5046C9F800
:10258000007001F0AAFBD9F80030002B0CBF1B2013
:10259000002008B0BDE8F08708F8013B84E72F462B
:1025A00000228AE70123207A23760DF11E01FEF72F
:1025B00043FA20B10F484FF4507101F061FB9DF8D0
:1025C0001E30002BCED0207A0DF11F01FEF70CFA41
:1025D00020B1084840F2463101F052FB9DF81F102F
:1025E0000029BFD1207A2246FFF7D6FEBAE7174668
:1025F000C4E700BF514600009923000070B50446AF
:102600000568FFF78FFE844202D10020FFF77EFEAF
:1026100095F93630002B11DB03F01F015B099B009D
:1026200003F1604303F5614301228A40C3F880212E
:10263000C3F88020BFF34F8FBFF36F8F287AFEF768
:10264000B3F920B111484FF4ED7101F019FB287A6C
:10265000FEF70EF920B10D484FF4EF7101F010FBB9
:10266000FEF7E4F838B10A4B984204D007484FF41B
:10267000F17101F005FB0023C4E90033C4E9043320
:10268000A3602846AB6ABDE8704018475146000079
:10269000058000F02DE9F84390F82C80DFF8AC902D
:1026A00004460D468E18B54228D094F82D3083B1DB
:1026B00001F00DFB237E07461BBB226B63699A4228
:1026C00004D040F2F911484601F0DAFA384601F038
:1026D00004FB94F83430002BE5D0B8F1000F06D09D
:1026E0002B780A2B03D1E3690D2120469847E36933
:1026F00015F8011B204698470028D4D00020BDE8DB
:10270000F8832046FFF728FEE168D4F830C001388E
:1027100088423EBF206900F1FF30401803469C45C7
:102720000BD013F80129112A01D0132A07D1A2F1E5
:1027300011035A425A4184F834202063C6E7994273
:1027400082BF236903F1FF335B18E8E751460000BD
:10275000F0B50C460646154687B0382200212046C3
:102760001F4601F0D5FB002395E803002A69237674
:10277000EB68E360C4E904232A7D84F82C20AA7D59
:102780002363012384F8343084F835300C9B2362B2
:1027900084E803000D9B63620E9B84F82D20E761A3
:1027A000A3622B7A84F83630204B7360204BB360E1
:1027B000204B3361204B7361204B3460F360FEF794
:1027C0007DF830B11E4B984203D01024204607B04C
:1027D000F0BD002104F10800FDF7F8FF0028F4D156
:1027E000184B0494CDE90203012723690193009754
:1027F0006368E2682168207A01F043FA0446002801
:10280000E3D195F90830002B0BDB03F01F025B09C5
:102810009B0003F1604303F561439740C3F8807167
:102820001F603046FFF772FDD0E700BF952600001D
:102830000D240000B73D0000BD3D0000FD25000057
:10284000038000F0992300002DE9F04186B01C467A
:10285000524B0C9D0293524B01930126002300938F
:10286000CDE903664F4B90460A462946FFF770FFB5
:102870000746002856D12368AB636368EB63637A2D
:1028800085F84130237A85F84030E37A85F8433083
:10289000A37A85F84230637B85F84530237B85F841
:1028A0004430E37B85F84730A37B85F846303E48CB
:1028B0003146FEF7CBF93D483146FEF7C7F9617A5C
:1028C000207A33460422FFF70DFA33460222E17ADA
:1028D000A07AFFF707FA60683146FEF7B7F988F883
:1028E000007041462068FFF785FC2268536F43F073
:1028F00003035367936FA17C23F4F85323F01F0362
:102900000B43617C43EA012303219367516785F8F8
:10291000487098F81930202B2CD007D803B3102B0F
:1029200009D02327384606B0BDE8F081302BF8D116
:1029300085F8481002E085F848603E4600230222F0
:10294000617B207BFFF7CEF92368E27CDA675A6E61
:1029500042F004025A665A6F42F010025A6766B992
:10296000AA6B2068D36C43F00403D3640521FFF7FE
:10297000D7FBD7E7022385F84830E17BA07B002313
:102980000422FFF7AFF92368217DDA6F42EA0122C2
:10299000DA675A6F42F020025A67E1E7CF3D000044
:1029A000C33D0000473E00004041050000350A00DD
:1029B00008B5074B044613B10021AFF30080054B67
:1029C0001868836A03B19847204601F0DCF900BF1C
:1029D00000000000AC460000074B10B51C6824B195
:1029E000A36913B9204600F06DFB61682046BDE87D
:1029F000104000F0E5BB00BF1C10002070B50D4D6D
:102A00000D4C641BA4100026A64209D10B4D0C4CA2
:102A100001F0EAFB641BA4100026A64205D170BD9C
:102A200055F8043B98470136EEE755F8043B9847C4
:102A30000136F2E78410002084100020841000206A
:102A4000881000200FB40A4B13B51C6824B1A36989
:102A500013B9204600F036FB05AB049AA168019338
:102A6000204600F015FD02B0BDE8104004B07047EC
:102A70001C100020094B13B51C68014634B1A36932
:102A800023B90190204600F01DFB0199A268204661
:102A900002B0BDE8104000F051BF00BF1C10002084
:102AA00070B50E46054618B183690BB900F00AFBF4
:102AB000AB69AC6813B9284600F004FB2C4B9C4270
:102AC00020D16C68636EDB0705D4A389980502D416
:102AD000A06D01F080FAA38919071DD52369DBB128
:102AE000013EA36816F8011F013BA36039BB002B10
:102AF00038DA22460A21284600F00EF9013011D0BA
:102B00000A2511E01B4B9C4201D1AC68DAE71A4B55
:102B10009C4208BFEC68D5E72146284600F04EF9F4
:102B20000028DDD04FF0FF35636EDA0705D4A389A6
:102B30009B0502D4A06D01F04FFA284670BD002B12
:102B400004DAA2699A4206DC0A2904D023685A1CD6
:102B500022601970C5E72246284600F0DDF80130F2
:102B6000BFD1DFE723680A255A1C22601D70DBE70E
:102B7000D0460000F0460000B0460000024B01467F
:102B80001868FFF78DBF00BF1C1000202DE9F74328
:102B90001D465D4B1F6804460E46904627B1BB6933
:102BA00013B9384600F08EFA584B9C4267D17C68C6
:102BB000B8F1020F06D0B8F1010F00F29F80002D8E
:102BC000C0F29C80636EDB0705D4A389980502D40C
:102BD000A06D01F000FA2146384600F0E3F9616B80
:102BE00041B104F14403994202D0384600F070FB31
:102BF000002363630023A3616360A389190603D5DF
:102C00002169384600F064FBA38923F44A6323F06A
:102C10000303B8F1020FA3816CD001AB6A462146D1
:102C2000384601F0DAF9A3891843A081002D30D18C
:102C3000009D284600F044FB0646002855D1DDF8EB
:102C40000090A9454AD14FF0FF350022A26004F15F
:102C50004702226022610122B4F90C306261626E87
:102C600043F00203D207A38105D413F4007F02D1FD
:102C7000A06D01F0B1F9284603B0BDE8F083244B04
:102C80009C4201D1BC6893E7224B9C4208BFFC6880
:102C90008EE7002ECDD0BB6913B9384600F012FA8A
:102CA000B8F1010F08BFA389266004BF43F00103F8
:102CB000A381A28912F00803C4E904651CD0D307DC
:102CC00041BF00236D42A360A56158BFA560656E3A
:102CD00015F0010515D112F4007FC8E7484600F051
:102CE000EFFA06460028AED04D46A38943F0800394
:102CF000A381D0E70025A8E7A360E8E74FF0FF3500
:102D0000B9E70025B7E700BF1C100020D04600003F
:102D1000F0460000B0460000F8B50E4614460546E1
:102D200018B183690BB900F0CDF9214B9C422BD12E
:102D30006C68A369A360A3891A072FD523696BB3B5
:102D400023692068C01A6369F6B28342374604DCFF
:102D50002146284600F026F930BBA368013BA3605A
:102D600023685A1C22601E7063690130834204D0BC
:102D7000A389DB0706D50A2E04D12146284600F098
:102D800011F988B93846F8BD0A4B9C4201D1AC68AC
:102D9000CFE7094B9C4208BFEC68CAE721462846AA
:102DA00000F00CF80028CBD04FF0FF37EAE700BF67
:102DB000D0460000F0460000B0460000324B70B52F
:102DC0001D6806460C4625B1AB6913B9284600F0CC
:102DD00079F92E4B9C420FD16C68A389B4F90C2071
:102DE00019072CD4DD0611D40923336042F04003C7
:102DF000A3814FF0FF303EE0254B9C4201D1AC68EF
:102E0000EBE7244B9C4208BFEC68E6E7580712D575
:102E1000616B41B104F14403994202D0304600F0A5
:102E200057FA00236363A38923F02403A3810023BB
:102E3000636023692360A38943F00803A3812369A6
:102E40004BB9A38903F42073B3F5007F03D0214667
:102E5000304600F0F5F9A089B4F90C2010F0010318
:102E60000AD00023A36063695B42A361236943B96D
:102E700010F08000BAD170BD810758BF6369A360AC
:102E8000F4E70020F7E700BF1C100020D046000048
:102E9000F0460000B04600008A892DE9F041054661
:102EA00010070C4658D44B68002B05DC0B6C002B2C
:102EB00002DC0020BDE8F081E66A002EF9D0002394
:102EC00012F480522F682B6032D0606DA3895A07AC
:102ED00005D56368C01A636B0BB1236CC01A00235D
:102EE0000246E66A216A2846B047431CA38906D1F8
:102EF00029681D292CD82A4ACA40D60728D500227D
:102F00006260D9042269226004D5421C01D12B6879
:102F100003B96065616B2F600029CAD004F14403D6
:102F2000994202D0284600F0D3F900206063C1E73F
:102F3000216A01232846B047411CC7D12B68002BCA
:102F4000C4D01D2B01D0162B01D12F60B1E7A3896E
:102F500043F04003A381ADE70F69002FA9D0930789
:102F60000E6808BF4B690F6018BF0023A6EB070867
:102F70008B60B8F1000F9CDD216AA66A43463A4691
:102F80002846B047002806DCA38943F04003A3810C
:102F90004FF0FF308EE70744A8EB0008E9E700BFD9
:102FA0000100402038B50B6905460C4613B90025D1
:102FB000284638BD18B183690BB900F083F8144B6B
:102FC0009C421BD16C68B4F90C30002BEFD0626EC0
:102FD000D00704D4990502D4A06D00F0FCFF284668
:102FE0002146FFF759FF636EDA070546E0D4A3894F
:102FF0009B05DDD4A06D00F0EFFFD9E7054B9C42A7
:1030000001D1AC68DFE7044B9C4208BFEC68DAE70B
:10301000D0460000F0460000B0460000014620B94E
:10302000044B0549186800F0B6BF044B1868FFF759
:10303000B9BF00BFAC460000A52F00001C10002047
:10304000002310B50446C0E90033C0E904338360AF
:1030500081814366C2818361194608225C3000F099
:1030600057FF054B6362054BA362054BE362054BBB
:103070002462236310BD00BF514100007341000072
:10308000AB410000CF410000014900F084BF00BF08
:10309000A52F0000014800F09EBF00BF461300208E
:1030A000014800F099BF00BF46130020014800F01E
:1030B00092BF00BF47130020014800F08DBF00BF42
:1030C0004713002010B50446FFF7F0FFA3691BB1BA
:1030D000BDE81040FFF7F0BFC4E912332365134B7E
:1030E000134A1B68A262A34204BF0123A3612046C6
:1030F00000F020F86060204600F01CF8A060204638
:1031000000F018F80022E06004216068FFF798FFE3
:10311000A06801220921FFF793FFE0680222122133
:10312000FFF78EFF0123A361D2E700BFAC4600008A
:1031300089300000F8B50746FFF7ACFF1E4B1E684C
:10314000B36913B93046FFF7BDFF4836D6E90134FD
:10315000013B03D533680BB33668F7E7B4F90C507D
:10316000D5B9164BE36004F15800656600F032FFF4
:10317000FFF796FFC4E90155C4E904552560A56130
:103180000822294604F15C0000F0C2FEC4E90D5596
:10319000C4E912552046F8BD6834D9E70421384601
:1031A00000F0C6FE044630600028D5D1FFF778FF56
:1031B0000C233B60EEE700BFAC4600000100FFFFC0
:1031C00038B50C46054618B183690BB9FFF77AFF8D
:1031D000184B9C421ED16C68636ED80705D4A38936
:1031E000990502D4A06D00F0F6FE6368013B002B48
:1031F000636019DA2846214600F0E8FB0546636E55
:10320000DA0705D4A3899B0502D4A06D00F0E4FE83
:10321000284638BD084B9C4201D1AC68DCE7074B1F
:103220009C4208BFEC68D7E723685A1C22601D78CF
:10323000E5E700BFD0460000F0460000B0460000C1
:103240008B8973B59D0706460C4607D504F14703E5
:10325000236023610123636102B070BD01AB6A4644
:1032600000F0BBFE00990546304600F09DF848B9D5
:10327000B4F90C309A05EFD423F0030343F00203B2
:10328000A381E3E70D4BB362A389206043F0800381
:10329000A381009B6361019B20615BB1B4F90E10B7
:1032A000304600F003FC28B1A38923F0030343F068
:1032B0000103A381A0890543A581CDE789300000E2
:1032C000024B0146186800F06FB800BF1C100020C8
:1032D00037B5002944D051F8043C0190002BA1F1EE
:1032E0000404B8BFE41800F003FC1E4A01981368F8
:1032F00033B96360146003B0BDE8304000F0FEBB3A
:10330000A34208D9256861198B4201BF19685B681F
:1033100049192160EDE71A465B680BB1A342FAD95F
:1033200011685518A5420BD1246821445418A342B2
:103330001160E0D11C685B68536021441160DAE7DA
:1033400002D90C230360D6E7256861198B4204BFBC
:1033500019685B68636004BF491921605460CAE75B
:1033600003B030BD9012002070B50E4E0C4631688F
:10337000054611B900F056FB30602146284600F0A2
:1033800051FB431C0AD0C41C24F00304A04207D004
:10339000211A284600F046FB013001D14FF0FF34DE
:1033A000204670BD941200202DE9F041CD1C25F07F
:1033B000030508350C2D38BF0C25002D074601DB11
:1033C000A94205D90C233B6000263046BDE8F081B8
:1033D0002E4E00F08DFB33681C4634BB2946384620
:1033E000FFF7C2FF431C04464DD134682646002E29
:1033F00040D123683146384604EB030800F012FB45
:1034000080453AD1216803356D1A25F0030508354A
:103410000C2D38BF0C2529463846FFF7A5FF013093
:103420002BD023682B4423600EE02268521B1ED44D
:103430000B2A16D96119A342256018BF5960636829
:1034400008BF316062514B60384604F10B0600F052
:1034500055FB26F00706231DF21AB6D09B1BA3507E
:10346000B3E76268A3420CBF32605A60ECE72346C0
:103470006468B2E734467668B9E70C233B603846A7
:1034800000F03CFBA1E72560DEE700BF90120020C2
:103490002DE9F04F0D469DB014469846064618B1EA
:1034A00083690BB9FFF70EFE894B9D421BD17568EE
:1034B0006B6ED90705D4AB899A0502D4A86D00F0CC
:1034C0008AFDAB891B0701D52B69EBB9294630462C
:1034D000FFF774FCC0B16B6EDC070ED54FF0FF3008
:1034E0001DB0BDE8F08F7B4B9D4201D1B568DFE791
:1034F000794B9D4208BFF568DAE7AB899805EDD4B2
:10350000A86D00F069FDE9E70023099320238DF8F9
:103510002930CDF80C803023DFF8C0818DF82A30B7
:103520004FF0010923469A4613F8012B0AB1252AC8
:10353000F9D1BAEB040B0BD05B4622462946304644
:1035400000F087FD013000F0AA80099A5A440992E0
:103550009AF80030002B00F0A28000234FF0FF32D9
:10356000CDE905230AF1010A049307938DF853303E
:103570001A935446052214F8011B5848FCF7C8FD5D
:10358000049AD8B9D10644BF20238DF853301307CD
:1035900044BF2B238DF853309AF800302A2B15D0D6
:1035A000079A544600204FF00A0C214611F8013BBF
:1035B000303B092B4ED9B0B1079214E0A0EB0803C1
:1035C00009FA03F313430493A246D2E7039B191DA0
:1035D0001B680391002BBBBF5B4242F002020793C2
:1035E0000793B8BF049223782E2B0CD163782A2B33
:1035F00035D1039B1A1D1B680392002BB8BF4FF0F7
:10360000FF3302340593DFF8E4A02178032250460B
:10361000FCF77EFD40B14023A0EB0A0003FA00F066
:10362000049B03430134049314F8011B2C488DF8C8
:1036300028100622FCF76CFD00283FD0294B1BBB4D
:10364000039B073323F0070308330393099B3B4491
:10365000099367E70CFB02320C460120A5E7002323
:103660000134059319464FF00A0C204610F8012B3F
:10367000303A092A03D9002BC5D00591C3E70CFBCA
:10368000012104460123F0E703AB00932A46164BC1
:1036900004A93046AFF300800746781CD6D16B6E84
:1036A000D90705D4AB899A0502D4A86D00F094FC23
:1036B000AB895B063FF512AF099811E703AB0093A6
:1036C0002A46094B04A9304600F012F8E4E700BF8F
:1036D000D0460000F0460000B04600001047000051
:1036E0001A47000000000000534000001647000089
:1036F0002DE9FF470F7E0C9D782F914680460C46A2
:103700009A4601F1430207D8622F0AD8002F00F031
:10371000D880582F00F0A38004F1420584F842704D
:103720003AE0A7F16303152BF6D801A151F823F075
:10373000893700009D370000193700001937000055
:1037400019370000193700009D37000019370000B5
:10375000193700001937000019370000A938000098
:10376000CD3700008B3800001937000019370000F2
:10377000CB38000019370000CD37000019370000A2
:1037800019370000933800002B681A1D1B682A6047
:1037900004F1420584F842300123A3E0206829683F
:1037A000060601F104030AD50E682B60002E03DA29
:1037B0002D23764284F843305E480A2319E00E68D0
:1037C0002B6010F0400F18BF36B2EFE72B6820686F
:1037D000191D2960010601D51E6802E04606FBD5C9
:1037E0001E8854486F2F0CBF08230A23002184F839
:1037F00043106568A560002DA2BF216821F0040177
:1038000021600EB9002D4DD01546B6FBF3F103FB38
:103810001167C75D05F8017D3746BB420E46F4D9F6
:10382000082B0BD12368DE0708D52369616899420C
:10383000DEBF302305F8013C05F1FF35521B226144
:10384000CDF800A04B4603AA2146404600F013FCE9
:1038500001304CD14FF0FF3004B0BDE8F08735485F
:1038600081F845702968236851F8046B29601D06AA
:1038700014D5DF0744BF43F0200323601EB923683B
:1038800023F0200323601023B0E7236843F02003D4
:1038900023607823284884F84530E3E7590648BF79
:1038A000B6B2E6E71546BBE72B6826686169181DC6
:1038B000286035061B6801D5196002E07006FBD54B
:1038C0001980002323611546BAE72B681A1D2A6068
:1038D0001D68626800212846FCF71AFC08B1401BED
:1038E000606063682361002384F84330A8E723699C
:1038F0002A4649464046D0470130ABD023689B0753
:1039000013D4E068039B9842B8BF1846A4E701238C
:10391000324649464046D04701309BD00135E368E6
:1039200003995B1AAB42F2DCEBE7002504F11906C0
:10393000F5E700BF214700003247000070B50D4693
:103940001446064618B183690BB9FFF7BBFB1C4B45
:103950009C4224D17468636ED80705D4A389990565
:1039600002D4A06D00F037FBA368013B002BA360DD
:1039700005DAA26993421CDBEBB20A2B19D023684B
:103980005A1C22601D70EDB2636EDA0705D4A3895C
:103990009B0502D4A06D00F01FFB284670BD094BAB
:1039A0009C4201D1B468D6E7074B9C4208BFF4683B
:1039B000D1E7294622463046FFF7AEF90546E3E750
:1039C000D0460000F0460000B046000038B50C4676
:1039D000054618B183690BB9FFF774FB0E4B9C4287
:1039E0000DD16C682146284600F0A0F888B96368BC
:1039F000013B636023685A1C2260187838BD074B6E
:103A00009C4201D1AC68EDE7054B9C4208BFEC68D5
:103A1000E8E74FF0FF30F1E7D0460000F046000045
:103A2000B046000038B5064D0023044608462B601A
:103A3000FCF700FE431C02D12B6803B1236038BDA4
:103A40009812002038B5074D04460846114600225A
:103A50002A601A46FEF772FC431C02D12B6803B1A0
:103A6000236038BD9812002038B5064D0023044667
:103A700008462B6000F085F9431C02D12B6803B186
:103A8000236038BD9812002038B5074D0023044646
:103A9000084611462B6000F077F9431C02D12B68D1
:103AA00003B1236038BD00BF9812002038B5064D21
:103AB0000023044608462B6000F06BF9431C02D13A
:103AC0002B6803B1236038BD9812002038B5074D2C
:103AD00004460846114600222A601A4600F05BF9A7
:103AE000431C02D12B6803B1236038BD981200201B
:103AF000014800F070BA00BF45130020014800F0F3
:103B00006BBA00BF4513002038B5074D0446084680
:103B1000114600222A601A4600F03FF9431C02D1E8
:103B20002B6803B1236038BD98120020F8B50C460D
:103B3000054618B183690BB9FFF7C4FA3B4B9C42A9
:103B40000AD16C68B4F90C2000236360A3899E0637
:103B50000CD54FF0FF3066E0354B9C4201D1AC688C
:103B6000F0E7344B9C4208BFEC68EBE7580748D4B9
:103B7000D90605D409232B6042F04003A381E8E76E
:103B80001A070BD521462846FFF70CFA0028E0D18A
:103B9000A389A06023F00803A381A061A38943F057
:103BA0000403A38123691BB921462846FFF748FB7C
:103BB000A689B4F90C70B3070FD00123A3811E4B63
:103BC0001E49186806F0090600F0C8F9092EA781F9
:103BD00003D121462846FFF75FF92269666A6369C7
:103BE000216A22602846B047002860601CDCB4F9D6
:103BF0000C3017BF002243F02003626043F0400303
:103C0000BCE7616B0029CDD004F14403994202D096
:103C10002846FFF75DFB236C636000206063002B88
:103C2000C0D0E36B2360F8BD0020FCE7D046000065
:103C3000F0460000B0460000AC460000D74100004E
:103C4000FCF714BBFCF76ABB08B500F03BF9FFF7C3
:103C5000F7FF00F044F9FFF7F5FFFAE77047FCF7CC
:103C60004BBC704770477047704770477047FCF710
:103C700051BCFEE74FF4004070474FF47A70704734
:103C8000FEE710B588B00E9C07940D9C06949DF835
:103C9000304005940B9C04949DF828400394002424
:103CA000CDE9013400920B46024601212046FCF783
:103CB000D1FC08B010BD08B5FDF710F8013008BD03
:103CC000EFF3108072B6704700B962B67047EFF339
:103CD0001180602383F31188704780F31188704747
:103CE00070B505460E461446FFF7EAFF296881EADB
:103CF000040202EA06044C402C60BDE87040FFF765
:103D0000E3BF03695B06FCD54163704713B502232B
:103D10000024684600948DF804408DF80530FDF7C6
:103D20005FFC204602B010BD07B530B9CDE90012E6
:103D3000FEF7F8FADDE9001230B1436823B10068FC
:103D400003B05DF804EB1847232003B05DF804FBD3
:103D500030B51C4685B058B9CDE90012FEF7E2FA3D
:103D6000DDE9001204B903AC20B9232005B030BD51
:103D700003B903AC8568002DF7D023460068A84737
:103D8000F4E700207047FEE74FF400534B6000203B
:103D90007047012070470020704707B5002001AB35
:103DA0000190FFF7D5FF0198002808BF4FF0FF30C2
:103DB00003B05DF804FB80F82C10704790F82C00DD
:103DC0007047826BD36C43F00403D3647047826BFB
:103DD00010B5044613695906FCD500231A4694F819
:103DE000411094F84000FDF77DFF00231A4694F837
:103DF000431094F84200FDF775FF94F84830DA0755
:103E000007D5002394F8451094F844001A46FDF7AE
:103E100069FF94F848309B0707D5002394F84710B2
:103E200094F846001A46FDF75DFFA06BC36C23F0C3
:103E30000403C3640021FEF773F9E06B0021FCF773
:103E400005FF002010BD08B5806BFFF75AFF00206A
:103E500008BD38B50468237EA06B33B9C36C23F06A
:103E60000403C3640123237638BD637E2BB394F827
:103E70002D3013B3002584F835501321FFF741FF8F
:103E8000A36BDA6C42F00402DA64DB69DBB2112B5B
:103E90000ED1012384F83430237A3022534303F1C6
:103EA000804303F56223D3F89430013B2363DBE7BF
:103EB000132BD9D184F83450EEE7C36C23F00403FC
:103EC000C364D1E708B5FCF77FFAFFF7C7FEFFF739
:103ED000C6FEFFF7C6FEBDE80840FFF7C3BE08B543
:103EE000FFF7C1FEFFF7C0FEFFF7BFFEBDE80840C9
:103EF000FFF7BCBE0A44914200F1FF3300D1704786
:103F000010B511F8014B03F8014F9142F9D110BDE2
:103F100002440346934200D1704703F8011BF9E7BE
:103F2000034613F8012B002AFBD1181A01387047F9
:103F300070B568224D1E55430E4605F17401FFF71A
:103F400033FA044640B10021C0E900160C30A060ED
:103F500005F16802FFF7DCFF204670BD2DE9F04156
:103F60000F4600F148040026D4E90185B8F10108A4
:103F700005D52468002CF7D13046BDE8F081AB8927
:103F8000012B06D9B5F90E30013302D02846B847C7
:103F900006436835EAE72DE9F8430646884600F10E
:103FA00048040027D4E90195B9F1010905D5246831
:103FB000002CF7D13846BDE8F883AB89012B07D92F
:103FC000B5F90E30013303D029463046C0470743C8
:103FD0006835E9E770477047704770B50E46B1F92C
:103FE0000E10002996B014461D4608DAB6F90C30BA
:103FF00000222A601A0610D44FF480630EE06A464D
:10400000FFF742FD0028F1DB019A02F47042A2F5AD
:1040100000535A425A412A60EEE7402300202360B1
:1040200016B070BD9368013B002B10B4936008DAA2
:104030009469A34201DB0A2903D15DF8044BFEF722
:104040006BBE1368581C1060197008465DF8044B6D
:104050007047F8B506460F461446D518AC4201D154
:10406000002007E014F8011B3A463046FFF7DAFF5C
:10407000431CF3D1F8BD2DE9F047164699468A68EE
:104080000B69DDF820809342B8BF1346336091F886
:10409000432007460C460AB1013333602368990672
:1040A00042BF336802333360256815F0060506D138
:1040B00004F1190AE36832689B1AAB4226DC94F8D3
:1040C0004320131E226818BF012392062BD404F14B
:1040D000430249463846C04701301ED02368E56890
:1040E000326803F00603042B08BFAD1AA3682269E7
:1040F0000CBF25EAE57500259342C4BF9B1AED1855
:1041000000261A34B5421AD1002008E00123524695
:1041100049463846C047013003D14FF0FF30BDE873
:10412000F0870135C6E7E1185A1C302081F84300BA
:10413000224494F8451082F843100233C7E7012364
:10414000224649463846C0470130E6D00136D9E715
:1041500010B50C46B1F90E10FFF7D6FC0028ABBF26
:10416000636DA3891B1823F48053ACBF6365A381DF
:1041700010BD2DE9F0411F468B89DB0505460C4635
:10418000164605D5B1F90E1002230022FFF79EFC5A
:10419000A389B4F90E1023F48053A38132463B4621
:1041A0002846BDE8F041FFF74DBC10B50C46B1F90B
:1041B0000E10FFF78BFC431CA38915BF606523F429
:1041C000805343F48053A38118BFA38110BDB1F97C
:1041D0000E10FFF749BC838903F00903092B01D1B5
:1041E000FEF71CBF00207047F8B500BFF8BC08BC44
:1041F0009E467047F8B500BFF8BC08BC9E467047A5
:104200005072696E746620757365732074686520DA
:1042100064656661756C742073747265616D2C20C1
:104220006173206C6F6E6720617320696F737472A5
:1042300065616D5F72657461726765745F737464E4
:10424000696F20697320696E636C756465642E0DF7
:1042500000494F73747265616D205553415254206B
:104260006578616D706C650D0A0D0A00546869739C
:10427000206973206F7574707574206F6E20746878
:10428000652064656661756C742073747265616D18
:104290000D0A000D0A596F752077726F74653A2008
:1042A00025730D0A3E20002E2E2F6175746F6765F1
:1042B0006E2F736C5F696F73747265616D5F696E89
:1042C00069745F75736172745F696E7374616E6334
:1042D00065732E6300000000050000000000000070
:1042E00000C20100000500000010000000000000F6
:1042F0000000000013B779FAC925DDB7ADF3CFE0B0
:10430000F1B614B80102000000000000FFFFFFFF3B
:10431000100000000100000000000000000000008C
:10432000000000000000000000000000000000008D
:10433000000000000000000000000000000000007D
:1043400000000000070000032F686F6D652F6A757D
:104350006E2F53696D706C696369747953747564F9
:10436000696F2F53444B732F6765636B6F5F736483
:104370006B2F706C6174666F726D2F656D6C696206
:104380002F7372632F656D5F636D752E63002F68E9
:104390006F6D652F6A756E2F53696D706C696369F7
:1043A000747953747564696F2F53444B732F676529
:1043B000636B6F5F73646B2F2F706C6174666F72C9
:1043C0006D2F636F6D6D6F6E2F696E632F736C5FF2
:1043D000636F6D6D6F6E2E68000403020B050C0396
:1043E00002010A0302060A09070301050806020082
:1043F00004000001400004000100100000028000E1
:10440000080002002000000040787D01000000004C
:10441000005A620200010000C0CF6A0002000000E2
:10442000809FD50002010000002D31010202000032
:104430002F686F6D652F6A756E2F53696D706C698B
:104440006369747953747564696F2F53444B732F88
:104450006765636B6F5F73646B2F706C6174666FFD
:10446000726D2F656D6C69622F7372632F656D5F5E
:10447000656D752E63002F686F6D652F6A756E2FE1
:1044800053696D706C696369747953747564696F8D
:104490002F53444B732F6765636B6F5F73646B2F90
:1044A0002F706C6174666F726D2F656D6C69622F11
:1044B000696E632F656D5F6770696F2E68002F6886
:1044C0006F6D652F6A756E2F53696D706C696369C6
:1044D000747953747564696F2F53444B732F6765F8
:1044E000636B6F5F73646B2F706C6174666F726D5A
:1044F0002F656D6C69622F7372632F656D5F6770D6
:10450000696F2E63002F686F6D652F6A756E2F536C
:10451000696D706C696369747953747564696F2F20
:1045200053444B732F6765636B6F5F73646B2F70BE
:104530006C6174666F726D2F656D6C69622F73723A
:10454000632F656D5F6C646D612E63002F686F6D06
:10455000652F6A756E2F53696D706C696369747924
:1045600053747564696F2F53444B732F6765636B86
:104570006F5F73646B2F2F706C6174666F726D2F39
:10458000656D6C69622F696E632F656D5F6275730F
:104590002E68002F686F6D652F6A756E2F53696DD9
:1045A000706C696369747953747564696F2F5344CF
:1045B0004B732F6765636B6F5F73646B2F706C61F8
:1045C00074666F726D2F656D6C69622F7372632FE5
:1045D000656D5F75736172742E63000000010807DA
:1045E0000F000A00C8002000A00001002F686F6DB6
:1045F000652F6A756E2F53696D706C696369747984
:1046000053747564696F2F53444B732F6765636BE5
:104610006F5F73646B2F706C6174666F726D2F7354
:104620006572766963652F696F73747265616D2F4A
:104630007372632F736C5F696F73747265616D5F02
:1046400072657461726765745F737464696F2E63F9
:10465000002F686F6D652F6A756E2F53696D706CD2
:10466000696369747953747564696F2F53444B732C
:104670002F6765636B6F5F73646B2F706C6174661B
:104680006F726D2F736572766963652F696F7374CE
:104690007265616D2F7372632F736C5F696F7374D2
:1046A0007265616D5F756172742E63002010002069
:1046B00000000000000000000000000000000000FA
:1046C00000000000000000000000000000000000EA
:1046D00000000000000000000000000000000000DA
:1046E00000000000000000000000000000000000CA
:1046F00000000000000000000000000000000000BA
:1047000000000000000000000000000000000000A9
:10471000232D302B2000686C4C00656667454647AA
:10472000003031323334353637383941424344452D
:10473000460030313233343536373839616263649C
:0447400065660000AA
:08474400ACBAFF7F0100000088
:0C474C005847000000100020230000006F
:10475800F4100020C0EA210100F04902C0EA21015A
:104768000080000048130020C0EA2101201000202A
:1047780000000000D0460000F0460000B0460000EF
:104788000000000000000000000000000000000021
:104798000000000000000000000000000000000011
:1047A8000000000000000000000000000000000001
:1047B80000000000000000000000000000000000F1
:1047C80000000000000000000000000000000000E1
:0C47D80001000000D5010000B10100004C
:0400000300000521D3
:00000001FF
