S0420000626F6F746C6F616465722D756172742D62676170692D736563757265626F6F742D66772D7369676E65642D656E63727970742D636F6D62696E65642E733337B5
S3150FE100000F4880F308880F48004700008105E10F8C
S3150FE100108105E10F8105E10F8105E10F8105E10F12
S3150FE100208105E10F8105E10F9C05E10F8105E10FE7
S3150FE100308105E10F8105E10F8105E10F8105E10FF2
S3150FE10040004000203505E10F10B5054C237833B993
S3150FE10050044B13B10448AFF300800123237010BDA5
S3150FE100601401002000000000B005E10F08B5034BB5
S3150FE100701BB103490348AFF3008008BD0000000040
S3150FE1008018010020B005E10F044B054A9A60D3F839
S3150FE10090882042F47002C3F88820704700ED00E033
S3150FE100A00000E10F094A0A4BD969C90705D512B90B
S3150FE100B06FF002007047013AF6E7002AF8D0012205
S3150FE100C01861DA60D86940F380007047809698002E
S3150FE100D000000E4070B5C1B10E4A0023082550F855
S3150FE100E0234094610C4CD5600133D669F60705D5EB
S3150FE100F014B96FF0020009E0013CF6E7002CF8D0E5
S3150FE10100D469A40703D49942E9D1002070BD6FF0F9
S3150FE101100100FBE700000E40809698002DE9F843B9
S3150FE101201C4B884641F671311D6C19641A49074615
S3150FE1013048684968996841F00101ADB2996096083E
S3150FE101404FF00009B14501D3002005E007EB890423
S3150FE101502046FFF7A7FF48B10E4B9A6822F001023E
S3150FE101609A600DB100221A64BDE8F883C4F30A045C
S3150FE10170C4F50064A408A6EB0901A14228BF2146F4
S3150FE101804046FFF7A7FF0028E6D1894408EB81082F
S3150FE10190D8E700BF00000E4000300E40234B41F67A
S3150FE101A071311A6C10B5196421494C68496899681F
S3150FE101B041F00101996001211861D960D9694C07B4
S3150FE101C092B209D5996821F0010199600AB100222D
S3150FE101D01A644FF0FF3026E00221D9601549D8693C
S3150FE101E0C00700D569B9D86910F002000BD099683C
S3150FE101F021F0010199600AB100221A646FF0010042
S3150FE1020011E00139EBE741B9986820F001009860F8
S3150FE1021002B119646FF0020005E0996821F001015E
S3150FE1022099600AB1186410BD1046FCE700000E4054
S3150FE1023000300E4080969800FFF770BF08B50A4B65
S3150FE102401A680A4B1A600A4B40221A615A6852031E
S3150FE10250FCD400F07DF80028FBD040F2022000F03C
S3150FE10260C9F8002008BD00BF0801002004010020E5
S3150FE1027000300E4010B5104C104BA36000F0D8F8CB
S3150FE102800F4B5B68B3F5803F09D040F209239842E3
S3150FE1029002D0B0F5007F02D100F016F850B9094B44
S3150FE102A0A3601846016881F3088881F309884068DD
S3150FE102B08746FEE710BD00BF00ED00E00000E10F4D
S3150FE102C000500E400008E10F2DE9F041DFF87C8088
S3150FE102D0D8F828201069D568836AAB4202D200208C
S3150FE102E0BDE8F08105F510429A42F8D95B1BC618B5
S3150FE102F0C758144B9F42F2D1F1684FF0FF3200F02D
S3150FE10300FFF8114B98420446E9D1D8F82838A3F102
S3150FE103107E62A2F58432B2F5104F10D21A68BA4254
S3150FE103200DD1B1689A68914209D8D9684FF0FF3279
S3150FE10330284600F0E5F8001B18BF0120D0E70120A1
S3150FE10340CEE700BF07B0CD5EE320BBDE0000E10FD5
S3150FE10350F8B5194B9B6AD3E90347BB6A1B1BFD181B
S3150FE103602646EA68A318B3421DD83946204600F05F
S3150FE1037092F8B8B1104BD3F82838A3F17E62A2F503
S3150FE103808432B2F5104F14D219680C4A914210D14A
S3150FE10390D9684FF0FF32204600F0B2F8084BC31A86
S3150FE103A058425841F8BD304600F06EF806F5006642
S3150FE103B0D7E70020F6E700BF0000E10F07B0CD5EFB
S3150FE103C0E320BBDE4FF000534AF6C0305B8823F0E3
S3150FE103D00F039BB21B1A5842584170474FF0005218
S3150FE103E008B51080FFF7EEFF10B94FF20F035380F8
S3150FE103F008BD000008B5FFF7F1FF0A4A136823F4B9
S3150FE10400E06343F400731360BFF34F8F0649074B65
S3150FE10410CA6802F4E0621343CB60BFF34F8F00BFAC
S3150FE10420FDE700BF00500E4000ED00E00400FA05C5
S3150FE104304FF000534FF20F015A888A4201D11888C3
S3150FE1044070473AB91B88012B40F2022018BF4FF4CF
S3150FE10450007070474FF40070704707B503469B076E
S3150FE1046053BF6FEA01414FF6FF7343EA01416FEA6A
S3150FE1047011410422019120F003000DEB0201FFF778
S3150FE10480DBFE03B05DF804FB08B5FFF787FEB0FAB4
S3150FE1049080F0400908BDF8B505460E4614460AB97F
S3150FE104A00120F8BD42EA0003DA0701D50020F8E79B
S3150FE104B0830721D50988FFF7D0FF0028F6D1023C43
S3150FE104C0032C05F1020506F102060BD924F0030709
S3150FE104D03A4631462846FFF7AFFE0028E6D13E44BD
S3150FE104E03D44E41B002CDBD031882846FFF7B5FFEE
S3150FE104F0B0FA80F04009D4E7032CE7D8F4E700001F
S3150FE1050010B50A4CD4F8B03043F04003C4F8B0301C
S3150FE10510074B01241C6001449A605C60884201D15B
S3150FE10520D86910BD10F8012B9A61F7E700400E402C
S3150FE1053000C001400B4880470B4880470B490C4AE6
S3150FE105400C4B9A42BEBF51F8040B42F8040BF8E785
S3150FE1055009490A4A00209142BCBF41F8040BFAE768
S3150FE10560FFF76CFE8900E10F7502E10FB405E10FAC
S3150FE1057004010020140100201401002030010020A5
S3150FE10580FEE700BFF8B500BFF8BC08BC9E46704752
S3150FE10590F8B500BFF8BC08BC9E467047AD1007B072
S3150FE105A00100000000000C010008E10F00800000CF
S3150FE105B000000000C0EA2101C0EA21016D00E10F50
S3090FE105C04900E10F08
S3150FE1080008100020FF26E10FFD26E10F6D29E10F0C
S3150FE10810FD26E10FFD26E10FFD26E10FFD26E10F96
S3150FE10820FD26E10FFD26E10FC032E10FFD26E10FB7
S3150FE10830FD26E10F0833E10FFD26E10FFD26E10F5E
S3150FE10840FD26E10FFD26E10FFD26E10FFD26E10F66
S3150FE10850FD26E10FFD26E10FFD26E10FFD26E10F56
S3150FE10860FD26E10FFD26E10FFD26E10FFD26E10F46
S3150FE10870FD26E10FFD26E10FFD26E10FFD26E10F36
S3150FE10880FD26E10FFD26E10FFD26E10FFD26E10F26
S3150FE10890FD26E10FFD26E10FFD26E10FFD26E10F16
S3150FE108A0FD26E10FFD26E10FFD26E10FFD26E10F06
S3150FE108B0FD26E10FFD26E10FFD26E10FFD26E10FF6
S3150FE108C0FD26E10FFD26E10FFD26E10FFD26E10FE6
S3150FE108D0FD26E10FFD26E10FFD26E10FFD26E10FD6
S3150FE108E0FD26E10FFD26E10FFD26E10FFD26E10FC6
S3150FE108F0FD26E10FFD26E10FFD26E10FFD26E10FB6
S3150FE10900FD26E10FFD26E10FFD26E10F10B5054CA2
S3150FE10910237833B9044B13B10448AFF300800123B5
S3150FE10920237010BD6810002000000000E034E10FD5
S3150FE1093008B5034B1BB103490348AFF3008008BD6C
S3150FE10940000000006C100020E034E10F064B074871
S3150FE10950DA1C121AC11E22F00302994288BF002245
S3150FE10960034902F078BC00BF681000200810002090
S3150FE10970EC34E10F064B0748DA1C121AC11E22F0BE
S3150FE109800302994288BF0022002102F072BC00BF28
S3150FE109901013002068100020044B054A9A60D3F823
S3150FE109A0882042F47002C3F88820704700ED00E01A
S3150FE109B00008E10F10B5154B0FCBE0B001AC84E8A1
S3150FE109C00F002822002105A802F053FCFF239422F1
S3150FE109D000213BA88DF8153002F04BFC482200218F
S3150FE109E00FA802F046FC6822002121A802F041FC83
S3150FE109F0202321AA0FA93BA802F033F922463BA9EE
S3150FE10A0005A801F0C9FE60B010BD00BF9C32E10F31
S3150FE10A1070B4084DD5F828582E698642034606D894
S3150FE10A206C6913449C4202D370BC01F065BF70BC84
S3150FE10A30704700BF0000E10F30B51446154A936ABF
S3150FE10A401D68154B9D4285B021D100F5004310F588
S3150FE10A50004F03931BD2039BB3F5801F17D2039B62
S3150FE10A60C3F58013A34212D350B9D2F828385A6985
S3150FE10A70B2F5004F04D91869019102F006F8019910
S3150FE10A800398224605B0BDE8304001F035BF05B009
S3150FE10A9030BD00BF0000E10FAD1007B0F0B5421E4B
S3150FE10AA0D11C85B0034619D80D4C6E4604F11007DB
S3150FE10AB020686168354603C50834BC422E46F7D136
S3150FE10AC00DF10F010F3311F8010912F8014F8442AD
S3150FE10AD004D19A42F7D1012005B0F0BD0020FBE722
S3150FE10AE0AC32E10F70B5036803F16043B3F5003F34
S3150FE10AF0A0B0044646D8244A4368D2F82828166996
S3150FE10B009E423FD8B3F5801F3CD8456B06F14003B3
S3150FE10B10AB4237D8B5F5801F34D840F20463284687
S3150FE10B200593FFF7BBFF58B3284601F007FF38B32C
S3150FE10B306B69012B26D1AD69AE4223D8AC4221D8E0
S3150FE10B40B5F5801F1ED806A802F0ECF82A1B214640
S3150FE10B5006A802F0F1F806A802F0F0F800F010FF8F
S3150FE10B60039000F011FF039B009005F12002294647
S3150FE10B7006A800F0C5FE05900598B0FA80F0400989
S3150FE10B8020B070BD0020FBE70000E10F08B54FF084
S3150FE10B90FF3200F09BFE044B984203D140F209204D
S3150FE10BA000F0D2F8002008BDE320BBDE024BD3F8FC
S3150FE10BB028389868704700BF0000E10F2C4B0122DF
S3150FE10BC010B55A6401F06EFD2A4B90B94AF6E85218
S3150FE10BD0C3F89021D3F8982142F00402C3F8982183
S3150FE10BE0C3F89001D3F8642142F40052C3F86421AB
S3150FE10BF001E00128F6D0204A136A23F4441343F4A3
S3150FE10C0088131362A2F58042136843F4807313606D
S3150FE10C10184BD3F8A42142F4F842C3F8A4215B6838
S3150FE10C2001F096FE00F06EF801F074FD01F074FD2F
S3150FE10C3018B14FF4017000F087F8FFF7BBFE0446D9
S3150FE10C4001F06CFD1CB140F203739C4203D140F2FB
S3150FE10C50012000F079F8A4F20574012C94BF40F25B
S3150FE10C6003204FF4017000F06FF8002010BD00BFB4
S3150FE10C7000000E4000300E4000400E4013B51F4BF2
S3150FE10C8001248DF806408DF807405B685B0510D5AA
S3150FE10C9000F078F8A0F2022080B2072809D804FA0A
S3150FE10CA000F010F0C90F1EBF00238DF806308DF846
S3150FE10CB0073000246368013307D14FF4027000F067
S3150FE10CC037F88DF806408DF807409DF807305BB190
S3150FE10CD00020FFF707FF8DF806009DF806301BB9D8
S3150FE10CE04FF4027000F024F89DF8063023B1044B5F
S3150FE10CF00020986001F030FE02B010BD00500E40AA
S3150FE10D0000ED00E0024B4CF23C325A80704700BFD7
S3150FE10D1000000020054B5B8823F00F034AF6C03035
S3150FE10D209BB21B1A58425841704700BF0000002082
S3150FE10D30044A08B51080FFF7EDFF10B94FF20F0324
S3150FE10D40538008BD0000002008B5FFF7F1FF0A4AFE
S3150FE10D50136823F4E06343F400731360BFF34F8F1B
S3150FE10D600649074BCA6802F4E0621343CB60BFF34F
S3150FE10D704F8F00BFFDE700BF00500E4000ED00E0D2
S3150FE10D800400FA05094B5A884FF20F018A4201D145
S3150FE10D90188870473AB91B88012B40F2022018BF19
S3150FE10DA04FF4007070474FF4007070470000002059
S3150FE10DB0014B1888704700BF000000201FB5124B8A
S3150FE10DC01A6842F480121A60D3F8C02042F0010289
S3150FE10DD0C3F8C02000F0A6F94FF47A23B0FBF3F085
S3150FE10DE00A4B0D2218600021684602F042FA0123F0
S3150FE10DF08DF8003006480A2369468DF8023002F075
S3150FE10E00E3F805B05DF804FB00400E4084100020C6
S3150FE10E100080014030B50D4D0D4A2D68536A15FB23
S3150FE10E2000F09CB210FA83F00A4B80B21880A04210
S3150FE10E30094B2CBF002401241C7011B1536A834264
S3150FE10E40FCD101235361936130BD00BF84100020B3
S3150FE10E50008001408C1000208E100020094B0A4AB9
S3150FE10E60D868127800F001000AB108B9704738B9AD
S3150FE10E70586A064B1B88984234BF00200120704701
S3150FE10E8001207047008001408E1000208C10002059
S3150FE10E9070B5394E394A3368394D3A4803F1340161
S3150FE10EA091601C3301216B606B6201F0BBFA36482E
S3150FE10EB0012101F0B7FA01214FF4AA4001F0B2FA8C
S3150FE10EC07068012101F0AEFA3368304940F6AA6243
S3150FE10ED00024DA6041F205021C605C665A609C6090
S3150FE10EE05C61DC6499645C679C67DC675A601A68CD
S3150FE10EF01A6000F017F9264A00F5E1435B014FF45A
S3150FE10F00E110B3FBF0F3203B02EAC303326821465B
S3150FE10F10536120460123042201F0C4FA01231A4644
S3150FE10F201946204601F0BEFA3368032205219C6774
S3150FE10F305A67D960174B4FF0E06119604FF44021C2
S3150FE10F401C62DC625C63DC66C3F880100131C3F8B6
S3150FE10F508840C3F88440C3F89850C3F8B0100E49DF
S3150FE10F60C3F8B840C3F8B4408A620122DA6303F1E9
S3150FE10F70C06302229A6070BD58100020481000200D
S3150FE10F80081000204041050000350A00F9FF010075
S3150FE10F90F8FF7F0000200E4000200E44084B986AB0
S3150FE10FA010F0020006D003F1806302221A629A6200
S3150FE10FB0012070471B6A9B07FBD4024B0222F6E71F
S3150FE10FC000200E4000200E447F2938B50446154611
S3150FE10FD024D8FFF7E3FF20B3134B20466218904264
S3150FE10FE00DD1124B1A88013961F30E121A80104A8C
S3150FE10FF0C2F8C8300223D36335B9002038BD10F8E3
S3150FE11000014B03F8014BEAE7FFF7C8FF0028FBD0D6
S3150FE11010084B1A6813699B06FCD5EEE741F20310FC
S3150FE11020ECE741F20620E9E78F1200204810002095
S3150FE1103000200E40581000200E4BD3F8940040F2DA
S3150FE11040011398420FD040F2022398420DD00A4B7A
S3150FE11050C01A0A4B1B6883420AD02ABFC3F5007335
S3150FE11060C01AC01870470020F3E74FF48070F0E71D
S3150FE110700020704700200E408F10002088100020BE
S3150FE110802DE9F843089F04460D461646F3B9FFF7D7
S3150FE11090D3FF214ADFF888E01368204FA84228BF23
S3150FE110A0284604EB000C00214FF001084FF002092E
S3150FE110B064451DD101B1136006B1306041F20423DD
S3150FE110C0A84234BF18460020BDE8F8832FB1FFF7D9
S3150FE110D075FE00213846FFF79DFEFFF7ADFFA842EB
S3150FE110E0D5D2002FF9D0FFF7B9FE0028F5D0CEE71C
S3150FE110F01EF8031004F8011B0133B3F5007F04D189
S3150FE11100C7F8089000230121D2E7B3F5807F08BF26
S3150FE11110C7F80880F7E700BF8810002000200E46C9
S3150FE111208F10002030B51B4B87B001AA03F11005D4
S3150FE1113018685968144603C40833AB422246F7D1FF
S3150FE111401B78154A2370D2F8943003F00703022B6C
S3150FE111501BD01369C3F30443102B18D818336B4410
S3150FE111600E4813F8143C0E4943438B4203D11269DF
S3150FE11170C2F34162D340084AD2F80001C0F304201A
S3150FE111800130B3FBF0F007B030BD064BF3E7064B8A
S3150FE11190F1E700BF5833E10F00400E4040420F0028
S3150FE111A000093D0000F04902C0EA2101074B30B5C5
S3150FE111B000220C2404FB02F1CD58854201D15818C7
S3150FE111C030BD01320A2AF5D10020F9E76C33E10F80
S3150FE111D070B5002386B0CDE9013308230093154698
S3150FE111E004AA044601F0BCFC41F203029042064612
S3150FE111F04FF0080323D194F8432052B11A46E06C1D
S3150FE1120004A901F099FD04AAA06C0823114601F087
S3150FE1121078FD059A6A6094F84320049B2B6052B9D6
S3150FE11220084A934207D0084A934204D0E06C082259
S3150FE1123004A901F081FD6B682365002363653046E0
S3150FE1124006B070BDF70A0AF7FC0404FC2DE9F74373
S3150FE11250044658680E4617469846002843D08B0732
S3150FE1126044D1244B206ED3F828381B6902EB000CCE
S3150FE112701D1D65451CD81C33984219D28542294656
S3150FE1128038BF0146081AC5F1680506EB000968186B
S3150FE112909C4594BFC1EB0C02C1EB030220444946C6
S3150FE112A0019201F0D8FF019AFF21484601F0E1FFD3
S3150FE112B0226E48F204039A420BD8B81848F2070196
S3150FE112C0884206D99B1AF258C4F880204FF0FF32B4
S3150FE112D0F250206E3A46D8E900353146A847226EDC
S3150FE112E03A442266002003B0BDE8F08341F20200E2
S3150FE112F0F9E700BF0000E10F2DE9F04FA7B0CDE907
S3150FE1130013239846309F002304460E461593159AEC
S3150FE11310424501D30020D2E094F84630102BF7D89E
S3150FE11320DFE813F06300B5005D0044002B001D01FB
S3150FE1133097012B008F012B008F014D02CD0211007A
S3150FE1134013011702CB024FF00009636D0F2B4AD839
S3150FE1135010230125CDE9003516AA4023CDF80890D3
S3150FE1136013A9204601F0FCFB0B900B9A41F2030304
S3150FE113709A4200F0DC800B9B43E04FF00109D4E980
S3150FE113801435AB422FD95B1BDDE91452AD1A94F834
S3150FE113904020032B154440F26981032D00F2698148
S3150FE113A013A9204601F0BBFB00232AE0AB4D636D89
S3150FE113B0072B00F2E1800123CDE9013308230093E6
S3150FE113C016AA402313A9204601F0CAFB0D900D9AE8
S3150FE113D041F203039A4200F0F9800D9B11E00025DB
S3150FE113E0636D072B22D9012330E116AA13A92046F3
S3150FE113F0FFF7EEFE0890089B41F20302934208D0F5
S3150FE11400089B0793079A41F203039A423FF47FAF92
S3150FE1141054E0179A2265002216996265904A914225
S3150FE1142040F0E680022284F84620EAE708234FF0EF
S3150FE11430010CCDE9003C16AA4023029513A92046DB
S3150FE1144001F08EFB0990099A41F203039A4201D00A
S3150FE11450099BD6E7169B03F07F43B3F1407F05D097
S3150FE11460102384F8463041F20903CAE7179AD007E9
S3150FE1147007D594F84230D10543F0010384F84230A1
S3150FE11480AED4102384F8463041F20A03B9E716AA1F
S3150FE1149013A92046FFF79CFE0A900A9D41F203032A
S3150FE114A09D420FD00A9D0795079A41F203039A428F
S3150FE114B03FF42DAF079B0BB10023F370079827B0CD
S3150FE114C0BDE8F08F1698FFF771FE28B9102384F85F
S3150FE114D0463041F20805E6E7437994F890209A42BF
S3150FE114E005D9102384F8463041F20E05DBE7026891
S3150FE114F05C498A4205D00289D20748BF013384F895
S3150FE11500903094F84230D9070DD5028994F84330DB
S3150FE11510920706D53BB1102384F8463041F2010517
S3150FE11520C1E7002BF7D0037984F84630BBE7D4F84F
S3150FE1153048B000F02DFA8023CDE9000317AA2B4618
S3150FE115400221584601F0BDFBFFE6226DA26501239C
S3150FE11550002284F84330E26584F84630D7E600216D
S3150FE115603C2217A8169101F084FE0125D4E9143225
S3150FE11570934204D884F8465041F2030341E70093BE
S3150FE1158016AA4023CDE9015513A9204601F0E8FA41
S3150FE115900C900C9A41F203039A4201D00C9B30E76F
S3150FE115A00DF1580C06F108030DF1700E624603CAF0
S3150FE115B0724518605960944603F10803F6D1106835
S3150FE115C01860337843F001033370CFE73378264859
S3150FE115D0179A43F002033370169B7360236D083B32
S3150FE115E07362AB6A1968814205D1DB68934205D014
S3150FE115F0102384F8463041F2010302E7042384F80D
S3150FE11600463094F8453043F0010384F84530002322
S3150FE116106366CCE60423009316AA4023CDE9015570
S3150FE1162013A9204601F09CFA0E900E9A41F203039C
S3150FE116309A4201D00E9BE4E6236D042B02D9169B49
S3150FE1164023660125636D032BE4D9092384F846301C
S3150FE1165092E70023636607237EE700BF0000E10FF1
S3150FE11660EB17A603F90707F9AD1007B0AB423FF643
S3150FE1167097AE402B28BF40239D4228BF1D46032D21
S3150FE1168088BF25F00305402316AACDE901990095F8
S3150FE1169013A9204601F064FA0F900F9A41F2030362
S3150FE116A09A4201D00F9BACE694F846A0BAF1070F28
S3150FE116B004D1D7F808B0BBF1000F1BD1042DC5F14A
S3150FE116C0040B16AB88BF4FF0000B5A46FF21581992
S3150FE116D001F0CFFDBAF1090FAB4414D13B465A469F
S3150FE116E016A92046FFF7B2FD0F900F9B002B3FF493
S3150FE116F046AED7E72A463B68606E16A9D847626EB3
S3150FE117002A4462663BE6BAF1040F7FF438AE73788A
S3150FE1171099077FF534AEFB68002B3FF430AE626E6E
S3150FE11720042A0BD80BEB0203062B07D917AB9B1A2F
S3150FE117301A68C4F884204FF0FF321A60FD683B68DF
S3150FE11740606E5A4616A9A847626E0BEB02056566EF
S3150FE1175015E694F84450002D7FF445AE40230093EF
S3150FE1176016AACDE9015513A9204601F0F9F9109012
S3150FE11770109A41F203039A4201D0109B41E6E06CC5
S3150FE1178001F0DCFAD4F84C9000F0FAF8059000F08D
S3150FE11790FBF8059B00901EAA16A9484600F0B0F883
S3150FE117A01090109B33B11023F57084F8463041F257
S3150FE117B0060326E60123F37084F8443013E600238B
S3150FE117C04FF00408CDE9013316AA4023CDF8008086
S3150FE117D013A9204601F0C4F91190119A41F20303BE
S3150FE117E09A4202D0119B079368E6D4F88820354BCD
S3150FE117F09A4205D0102384F8463041F20503F2E709
S3150FE1180094F8443033B9F370102384F8463041F23B
S3150FE118100603E8E7F378002B48D094F84530DA076A
S3150FE1182007D5FD682DB13B68424604F18401404678
S3150FE11830A84794F845309B0707D5FD682DB10422DB
S3150FE118403B6804F184011046A847236E73B37D68A4
S3150FE1185065B34FF0FF3304F18001042212A812930E
S3150FE11860059101F0E8FC28B13B680599042248F29D
S3150FE118700400A84704F168090422494612A801F0B9
S3150FE11880DAFC98B1104BD3F82838D3F8108014222C
S3150FE11890D7E9003504F16C0108F10800A8470422E5
S3150FE118A0D7E90035494608EB0200A8470123B37093
S3150FE118B00C2384F84630002395E70023F37041F2B9
S3150FE118C00700FCE5E320BBDE0000E10F10B50A4C93
S3150FE118D0D4F8B03043F04003C4F8B030074B0124DD
S3150FE118E01C6001449A605C60884201D1D86910BDE1
S3150FE118F010F8012B9A61F7E700400E4000C0014056
S3150FE119002DE9F041A2B00E46DDF8A08015461F463F
S3150FE11910044670B369B362B35BB3B8F1000F28D075
S3150FE119201548012100F07EFD4022002102A801F0B9
S3150FE11930A0FC394602A801F014FA12AF41460AA8F3
S3150FE1194001F00FFA40220021384601F092FC3146B0
S3150FE11950384601F006FA29461AA801F002FA0748B5
S3150FE11960009702AB2022214600F0C8FA22B0BDE86B
S3150FE11970F08140F20160F9E700050A0000000F402F
S3150FE11980004870474A43E00F004870476A43E00F4B
S3150FE11990004870478642E00F2DE9F04104461D46A7
S3150FE119A00F46904600211C22181D01F062FC01230F
S3150FE119B02B6001F004FA4146064604F5807001F00A
S3150FE119C06BFA394604F5827004F5847701F064FA0F
S3150FE119D02946384601F060FA304601F0F4F90D4E2A
S3150FE119E00D4B0E4A0E490F4823656369DB010BD593
S3150FE119F001F0E5F929460446384601F055FA204645
S3150FE11A00BDE8F04101F0DFB922656165A065E665E4
S3150FE11A10EBE700BF3938010039398401D02484FC62
S3150FE11A201C82FED88B1C81A02DE9F04F2DED028B88
S3150FE11A308BB004469A460D46164601F0C0F904F5F9
S3150FE11A40827705F14002114604F5867B80463846DA
S3150FE11A50019201F021FA3146584601F01DFA04F5DB
S3150FE11A608873184606F12001009301F015FA4046F6
S3150FE11A7001F0A9F9434921654349616501264349C6
S3150FE11A80A165E66501F09BF929468146384601F0E5
S3150FE11A9003FA04F5847805F120031946404608EE6A
S3150FE11AA0103A01F0F9F9019A009B1146184601F037
S3150FE11AB0F3F9484601F087F9354B2365354B6365F5
S3150FE11AC0A66501F07CF904F5807900900AF14001F1
S3150FE11AD0484601F0E9F902A9404601F0E5F9009B14
S3150FE11AE0184601F070F901F06AF929460090584657
S3150FE11AF001F0D2F9009B184601F065F9264B2365F3
S3150FE11B00264B63656FF42672A3F5FE231344A36593
S3150FE11B10E66501F054F918EE101A0546384601F05C
S3150FE11B20BBF9284601F04FF91D4B23651D4B636544
S3150FE11B30A66501F044F951460546404601F0B4F970
S3150FE11B40284601F040F901F03AF902A9054638466F
S3150FE11B5001F0A2F9284601F036F9134B2365134B31
S3150FE11B606365A66501F02BF90AF1200104464846A3
S3150FE11B7001F09AF9204601F026F90BB0BDEC028B84
S3150FE11B80BDE8F08F8AD11C81D91C83D11C81E11C60
S3150FE11B90D01482CB1481E11C8CE11C811C84D91CED
S3150FE11BA0E014D8141482E11C84D31482D11CE014FE
S3150FE11BB02DE9F041044690B00F46244E052190469B
S3150FE11BC001F0DBF900232360236363630FCE08ADD6
S3150FE11BD00FC596E80F0085E80F0008AA6B4607F1D7
S3150FE11BE040012046FFF7D8FE01F0E9F804F58676C5
S3150FE11BF00546694604F5827001F04EF939463046DD
S3150FE11C0001F04AF907F1200104F5887001F044F972
S3150FE11C10284601F0D8F80E4B23650E4B63650E4B44
S3150FE11C20A3650123E36501F0CAF808F12001054632
S3150FE11C3004F5807001F038F94146304601F034F988
S3150FE11C40284601F0C0F810B0BDE8F081F033E10F9E
S3150FE11C508AD11C81D91C83D11C81E11C2DE9F04F5E
S3150FE11C60A5B01D460446CDE9001205A81C220021A8
S3150FE11C7001F0FFFA4FF0010820220021284605F175
S3150FE11C802007CDF8108005F1400A01F0F2FA202283
S3150FE11C900021384601F0EDFA20220021504601F0ED
S3150FE11CA0E8FA0521204601F068F900232360FF26B3
S3150FE11CB0236363637211019906F01F0351F8221032
S3150FE11CC008FA03F30B42324606F1FF3601D0164608
S3150FE11CD001E0002EEED101F072F804F58273394678
S3150FE11CE080461846029301F0D7F8404601F06BF8AB
S3150FE11CF0764B774A23656265764AA26501F05FF80E
S3150FE11D0004F5807914A98046484601F0CDF840469E
S3150FE11D1001F059F801F053F829468046484601F09B
S3150FE11D20BBF8404601F04FF86B4A6C4B22654FF416
S3150FE11D3086726365A26501F042F804F586788346FB
S3150FE11D400CA9404601F0B0F81CA9484601F0ACF8E1
S3150FE11D50584601F038F801F032F8029B03935146E9
S3150FE11D608346184601F098F8584601F02CF85C4B7B
S3150FE11D7023650123636501F022F804F5847B294687
S3150FE11D800290584601F088F8029A104601F01BF8C6
S3150FE11D90544A226502F1D94202F5DE1202F5956245
S3150FE11DA06265A2F586120123A2F2BA42A265E36544
S3150FE11DB001F005F81CA90290584601F06DF80CA93F
S3150FE11DC0404601F069F8029A104600F0FCFF464AD8
S3150FE11DD02265464A6265464AA26500F0F0FF29464A
S3150FE11DE0029004F5887001F05FF8029A104600F050
S3150FE11DF0EAFF00F0E4FF039B02903946184601F033
S3150FE11E004BF85846514601F047F814A9404601F000
S3150FE11E1043F8029A104600F0D6FF364B2365364B50
S3150FE11E20636500F0CCFF51468346484601F03CF826
S3150FE11E303946404601F038F8584600F0C4FF012113
S3150FE11E4006F01F0301FA03F37211019951F82220EB
S3150FE11E50134211D0284600F074FF38B1384600F02E
S3150FE11E6070FF18B1504600F06CFF58B9009A2B4637
S3150FE11E7029462046FFF7D8FD013EBFF42CAF25B02A
S3150FE11E80BDE8F08F009BAC4603F1200E1868596848
S3150FE11E90624603C2083373459446F7D1BC4603F154
S3150FE11EA0200E18685968624603C208337345944693
S3150FE11EB0F7D10DF1100EBEE80F0005F1400CACE8BD
S3150FE11EC00F009EE80F008CE80F00D5E78AD11C8141
S3150FE11ED0821CC00C0C0C0100C00C0C83D91C83D8DE
S3150FE11EE08AD11C83DA0C81148CE11CD01484E3149F
S3150FE11EF082D11C01D81483D11CC00C012DE9F04FFE
S3150FE11F00BBB00D460446002193460AA86022449EC3
S3150FE11F10994601F0AEF96022002122A801F0A9F954
S3150FE11F20002D00F01C81B9F1000F00F01881002E91
S3150FE11F3000F01581BBF1000F40F3118100232360FF
S3150FE11F4023636363636843F0100363600C212046E8
S3150FE11F5001F013F86368DFF824C223F4406343F416
S3150FE11F6000636360636823F4407343F40073636053
S3150FE11F70BCE80F002AAF0FC79CE80F0087E80F00F8
S3150FE11F8000F01DFF04F5847882463146404604F59C
S3150FE11F90867700F081FF2AA9384600F07DFF50468B
S3150FE11FA000F011FF6F4A2265012363656369DA0168
S3150FE11FB004D440F202603BB0BDE8F08F311F082335
S3150FE11FC051F8040F002800F0C28000F0F8FE06F188
S3150FE11FD0200A01905146404600F05EFF2AA9384695
S3150FE11FE000F05AFF019B184600F0EDFE01235D4A12
S3150FE11FF0226563656369DB01DBD55246082352F837
S3150FE12000041B002900F0A7802022002132A801F04D
S3150FE1201030F9BBF1200FA8BF4FF0200B0BF1FF32C8
S3150FE12020013D22F0030303F594736B4402F0030CB5
S3150FE1203015F8010F53F8601C4FEACC0C00FA0CF0BF
S3150FE120400843013A43F8600CEBD200F0B8FE32A92F
S3150FE120500546404600F020FF284600F0B4FE424B0D
S3150FE12060236500F0ACFE04F5807B054632A95846A0
S3150FE1207000F01AFF284600F0A6FE2AAA02AB514647
S3150FE120802046FFF789FC00F09AFE04F5887A0546AB
S3150FE1209002A904F5827000F0FFFE32A9504600F066
S3150FE120A0FBFE3146384600F0F7FE284600F08BFE80
S3150FE120B02E4B236503F1FA43A3F50063636500F045
S3150FE120C07EFE32A90546504600F0EEFE02A95846BD
S3150FE120D000F0EAFE284600F076FE25490AAB32AA61
S3150FE120E02046FFF7BBFD22AB02AA49462046FFF782
S3150FE120F0B5FD0AAA11462046FFF75AFD22AB19464E
S3150FE121000AAA2046FFF790FC22AA11462046FFF7BE
S3150FE121104FFD00F054FE0C210546204600F02DFF41
S3150FE1212022A9404600F0B8FE3146384600F0B4FE2B
S3150FE12130284600F048FE0F4B23650F4B6365636935
S3150FE1214013F0807F40F2046018BF002033E7013BB4
S3150FE121507FF436AF2DE7013B7FF451AF29E740F22C
S3150FE12160016028E73035DA1030D00C0130E11C84FC
S3150FE121703034E10F3035DA14393801001034E10F1C
S3150FE121802DE9F34799460A9B0C4619683F290546FF
S3150FE12190164642D85A68002A41D0224A002E14BF69
S3150FE121A0B046904601F03F07091928BF5A681960F2
S3150FE121B024BF01325A60AFB1C7F1400AA24521D817
S3150FE121C02946524609EB070001F045F80123009332
S3150FE121D0414633464A46002000F086F8403C5544D6
S3150FE121E03C44B0463F2C0CD9A30900932A4633460B
S3150FE121F04146002000F078F824F03F031D4404F037
S3150FE122003F0400272CB12246294609EB070001F0CE
S3150FE1221022F8002002B0BDE8F0879046C2E7DFF86A
S3150FE122200480BFE77034E10F30B405460846114626
S3150FE122301A46DDE9023425B931B1029430BCFFF714
S3150FE122409FBF024830BC70470846FBE780AFFFFFF0
S3150FE122502DE9F041146886B01E46E3008DF80F3084
S3150FE12260630917468DF80E305268630B8DF80D3002
S3150FE12270630D8DF80C30D30003EB54738DF80B30EF
S3150FE1228004F03F045309372C8DF80A304FEA5233E5
S3150FE122904FEA525205468DF80820CDE9001794BF53
S3150FE122A0C4F13802C4F1780288468DF809300D4938
S3150FE122B003460020FFF7B8FF0821434600972A4659
S3150FE122C00DEB0100FFF75CFF284605F1200350F8FF
S3150FE122D0042B46F8042B9842F9D1002006B0BDE84D
S3150FE122E0F08100BF9034E10F2DE9F04F99B005462B
S3150FE122F0884691461F4600F0DDF90446002D7DD153
S3150FE12300042303604560C56443686A4623F440636A
S3150FE12310436008F11C010563A8F104034563904688
S3150FE1232053F8040F00BA8B4242F8040BF8D100F0D0
S3150FE1233046FD4146054604F5827000F0ADFD28469F
S3150FE1234000F041FD2F4B23654FF0000A09F003061C
S3150FE12350229A924527D1BB0704F5807643D000F048
S3150FE123602EFD41460546304600F09EFD284600F01B
S3150FE123702AFD08AD3A46434603CBAB4210605160A6
S3150FE12380984602F10802F6D1204600F09DF93B1F6F
S3150FE123901C3753F8042F12BABB421A60F9D1002049
S3150FE123A019B0BDE8F08F09EB8A1566B10DF1200C76
S3150FE123B005F1400E28686968624603C2083575451E
S3150FE123C09446F7D108AD00F0FAFC2946834604F5A9
S3150FE123D0D27000F071FD584600F0F5FC0A4B23650B
S3150FE123E00AF1010AB4E700F0EAFC39460546304640
S3150FE123F000F05AFD284600F0E6FCC5E76FF07100E4
S3150FE12400CEE700BF888AC801070D8101044BD3F8D7
S3150FE124104421D20703D4D3F840211042FBD17047B0
S3150FE1242000400E4038B5C0F30323013B092B16D804
S3150FE12430DFE803F02616151505191C151F23124C97
S3150FE124400023C0F3043513B11846FFF7DFFF04F19C
S3150FE12450424404F5801405EBC404A400216038BDA1
S3150FE124600A4C0023EDE70A4C0123EAE7094C102356
S3150FE12470E7E7094C4FF48033E3E7084C0023E0E745
S3150FE12480074C0023DDE700BFB0400E40C0400E40D1
S3150FE12490E0400E40E8400E40F0400E4050410E4005
S3150FE124A000400E4000EB4000F8B50D461F46040113
S3150FE124B016463AB1164801238B402044CFB100F1BD
S3150FE124C0C0600360072D4FF00F0115D8AB0011481F
S3150FE124D006FA03F29940204400F065FD46B90C4A2D
S3150FE124E0012101FA05F5224477B102F1C0621560C7
S3150FE124F0F8BD00F18060E4E7A5F108039B0006480B
S3150FE1250006FA03F29940E6E702F18062EFE700BFD0
S3150FE125100CA0004004A0004008A00040234B41F668
S3150FE1252071311A6C10B5196421494C68496899687B
S3150FE1253041F00101996001211861D960D9694C0710
S3150FE1254092B209D5996821F0010199600AB1002289
S3150FE125501A644FF0FF3026E00221D9601549D86998
S3150FE12560C00700D569B9D86910F002000BD0996898
S3150FE1257021F0010199600AB100221A646FF001009E
S3150FE1258011E00139EBE741B9986820F00100986055
S3150FE1259002B119646FF0020005E0996821F00101BB
S3150FE125A099600AB1186410BD1046FCE700000E40B1
S3150FE125B000300E40809698002DE9F04F054602F166
S3150FE125C06040B0F5003F03D94FF0FF30BDE8F08F23
S3150FE125D0DFF8C4C02E4CDFF8C490DFF8C480302694
S3150FE125E006FB05C64FF44010C6F880000020C6F87A
S3150FE125F08400C6F88800C6F8980041F67130D4F821
S3150FE1260040A02064A0684FF0010E40F00100A060E9
S3150FE126100EFA05F55BB90422E260A26822F0010227
S3150FE12620A2601FFA8AF202B123641846CEE701F5DA
S3150FE126300060216100EA0900C4F80CE0401AD4F801
S3150FE126401CB0984228BF18461BF0040F4FEA9007BB
S3150FE12650BAD1013F3F0147F06057C6F88C700D4F75
S3150FE12660C6F89020C6F89470DCF820702F43CCF8AA
S3150FE1267020701027E760DCF828703D42FBD0C8F8E0
S3150FE1268028500144C8F8205002441B1AC2E700BF84
S3150FE1269000000E4018000E4000200E4000F8FFFF2C
S3150FE126A000200E44024BD3F8FC00000E704700BF2A
S3150FE126B00081E00F024B03480122C3F80026704761
S3150FE126C00010C84300000F40094B98420ED003F5A6
S3150FE126D08063984209D10122064B03EBC2035A6884
S3150FE126E0054B13449B0000221A6070470022F3E763
S3150FE126F000000F40D034E10F8005F210FEE708B578
S3150FE12700FEF74AF9FEF7BAFAFEF720F9FEF732F9C4
S3150FE12710FEF754FA00F009B800F009B870470179ED
S3150FE12720012204310330FEF74FBCFEF7B1BB00B512
S3150FE12730C3B0FEF73DFBB0F5027F17D14FF48472BC
S3150FE127400021684600F095FDA0238DF803300223A2
S3150FE127508DF8043001238DF8063046238DF80730C6
S3150FE12760684600238DF80830FFF7D9FF4FF48472DE
S3150FE127700021684600F07DFDA0238DF80330042388
S3150FE127808DF80430FEF712FACDF807006846FFF729
S3150FE12790C6FF43B05DF804FBF0B5ADF5097D044620
S3150FE127A00E46174600214FF4847246A800F061FDEC
S3150FE127B020238DF81B3102238DF81C314FF48472DF
S3150FE127C0002104A800F055FD4FF47A75FEF734FCAD
S3150FE127D00028FBD001231946009503AA0DF113003A
S3150FE127E0FEF74EFC9DF81330202BEFD10095012318
S3150FE127F003AA032105A8FEF743FC0028DED1039BBC
S3150FE12800032BDBD19DF8145075B140F6B833009325
S3150FE1281003AA012329460DF11700FEF731FC002823
S3150FE12820CCD1039B9D42C9D19DF81530002B49D1DF
S3150FE128309DF81650022D0DD0032D1FD0012DBDD1C0
S3150FE128408DF81E518DF81F318DF8203146A8FFF70F
S3150FE1285066FFB3E79DF81730009706AA2146304683
S3150FE12860FEF74AFD8DF81E5128B141F20703984252
S3150FE1287014BF46200020ADF81F01E7E7A3788DF8D6
S3150FE128801E51EBB1E378002B0CBF4623002346A87C
S3150FE12890ADF81F31FFF743FFA378002B8ED0E37816
S3150FE128A0002B8BD023789B0788D56568FEF77EF9D9
S3150FE128B0854283D9616A4FF40040FEF767F97DE7F8
S3150FE128C04623E4E7012B7FF479AF9DF81630012B10
S3150FE128D07FF474AFA37833B1E37823B940F20320E1
S3150FE128E0FEF732FA6AE79DF81730012B0CBF40F27B
S3150FE128F0022040F20120F3E7C0F30A032DE9F0418C
S3150FE1290005460F4616460BB900F0BFF805F500640C
S3150FE1291024F4FF6424F0070405EB0608A04507D865
S3150FE129203246394628460223BDE8F04100F0B4B8F5
S3150FE12930204600F0AAF804F50064EFE7036913F007
S3150FE12940FE0F0CBF0120002070474FF40040704787
S3150FE12950002070470020704700231846016881F375
S3150FE12960088881F3098840688746FEE74FF40170CE
S3150FE12970FEF7EAB9B1F5BE7F10B504460FD34FF4B2
S3150FE12980BE72002100F075FC04F5827204F1BC0100
S3150FE1299004F128000023BDE8104000F062B940F2CF
S3150FE129A0052010BD13B50446009101462830FEF708
S3150FE129B0A3FCC4F8780118B141F20703984209D193
S3150FE129C0A3784BB1E27840F2032040F20223002ACA
S3150FE129D008BF184602B010BD40F20120FAE72DE913
S3150FE129E0F04387B00DF108090446DDF838800E464D
S3150FE129F017460021102248461D4600F03AFC0021F9
S3150FE12A00C8F800101C22284600F033FC32463B463C
S3150FE12A10CDF80090214604F12800FEF76DFC2378EE
S3150FE12A209A0744BF6268C8F80020DB0709D504F1AD
S3150FE12A30080304F1240253F8041B45F8041B9342DF
S3150FE12A40F9D12378002B40F2064018BF002007B0DA
S3150FE12A50BDE8F0834FF4BE70704713B504460B46DD
S3150FE12A601046A20753BF6FEA03434FF6FF7242EADE
S3150FE12A7003436FEA13430193042324F003010DEBA0
S3150FE12A800302FFF799FD02B010BD08B5FFF746FD4A
S3150FE12A90B0FA80F0400908BD072B2DE9F041054654
S3150FE12AA00E4614461F4602D90020BDE8F0810121EA
S3150FE12AB04FF4AA40FFF7B6FC0CB90120F5E744EA5B
S3150FE12AC00503DA07F0D4AB0726D531883A4628460F
S3150FE12AD0FFF7C3FF0028E7D1023C032C05F10205FE
S3150FE12AE006F102060DD924F003084346324629467C
S3150FE12AF03846FFF761FD0028D6D146444544A4EB9D
S3150FE12B000804002CD9D031883A462846FFF7A5FFAD
S3150FE12B10B0FA80F04009C8E7032CE4D8F3E770B5C3
S3150FE12B20D1E90152AA4205D290F840302B449B1AC3
S3150FE12B30402B10D9002012E00A6890F84040D65C8D
S3150FE12B4090F84120224402F03F02013301348654CA
S3150FE12B508B6080F840408B689D42EDD8012070BDB7
S3150FE12B602DE9F84317469E46D1E9012390F840C077
S3150FE12B70089D9DF824909DF82880D21A62449542CB
S3150FE12B8004460E460AD9FFF7CAFF002867D110237C
S3150FE12B9084F8463041F20200BDE8F883754555D811
S3150FE12BA0002394F840200AB19D4235D1D6E901219F
S3150FE12BB0914201D29D4241D89D424DD1D4F8882010
S3150FE12BC029463846FEF782FEC4F88800B9F1000FB0
S3150FE12BD004D0E06C2A46394600F0AEF8B8F1000FA2
S3150FE12BE008D094F843308BB1A06C2B463A46394660
S3150FE12BF000F087F894F8433043B1E36DA26D2B44AF
S3150FE12C009342E36524BF002384F84330636D2B447D
S3150FE12C10636541F20300BFE794F84120A25CFA54E1
S3150FE12C2094F84120013202F03F0284F8412094F8F2
S3150FE12C304020013A84F840200133B2E73268525C12
S3150FE12C40FA54B2680132B2600133AFE741F20100E3
S3150FE12C50102384F846309FE741F20200F8E700209F
S3150FE12C609AE72DE9F04103F02003002504464FF0E2
S3150FE12C70FF38C0E918550F461646A0F8405080F8C0
S3150FE12C804350A0F8445080F8465080F84230C0F8DF
S3150FE12C9088801822FF21683000F0EBFAC4E912763A
S3150FE12CA0C4F88080C4F8848084F8905037B12EB18F
S3150FE12CB0304600F037F82846BDE8F08141F20B00C7
S3150FE12CC0FAE7F8B5044616461D460F4600F0CFF96A
S3150FE12CD0DDE90612204600F0CEF90023636284F89F
S3150FE12CE038703368C4F839307368C4F83D30B36867
S3150FE12CF0C4F841302B0C6DBA84F84530A4F8465030
S3150FE12D00F8BD30B585B00D46194600F12803CDE97A
S3150FE12D100152009300F1240200F1380300F0C9F9E2
S3150FE12D2005B030BD10B5044600F02CF82046002161
S3150FE12D30BDE8104000F02AB800F02DB8014600F0CA
S3150FE12D4037B803685BB903461C2053F8042F0AB959
S3150FE12D500438FAD10028CCBF0020012070470020AB
S3150FE12D60704738B5202204460D46002100F081FA5E
S3150FE12D7005F12003601E13F8012D00F8012FAB4278
S3150FE12D80F9D138BD6822002100F073BA0023C0E9FA
S3150FE12D9000331846704707B500F1280301900093F9
S3150FE12DA000F108030020FFF73FFA03B05DF804FBDB
S3150FE12DB002460B4600F128010830FFF749BAEFF357
S3150FE12DC0108072B6704700B962B6704784B00B686F
S3150FE12DD000934B6801938B680293CB680393009B37
S3150FE12DE00360019B0360029B0360039B0360002367
S3150FE12DF0009301930293039304B0704730B5D1E981
S3150FE12E000223D1E90054056004600260036030BD1E
S3150FE12E1030B50568046802680368C1E90054C1E981
S3150FE12E20022330BD7FB58B07044611D00B466D46A5
S3150FE12E3001F11006186859682A4603C20833B342EE
S3150FE12E401546F7D169462046FFF7D8FF04B070BDA6
S3150FE12E500091009904B0BDE87040FFF7CFBF30B5E0
S3150FE12E608B0785B00C4610D06946FFF7D1FF0D46AB
S3150FE12E70234604AC2A4603CAA24218605960154696
S3150FE12E8003F10803F6D105B030BD0091009905B005
S3150FE12E90BDE83040FFF7BCBF10B5FFF7AFFFBDE8A8
S3150FE12EA010401031FFF7AABF10B5FFF7B1FFBDE82C
S3150FE12EB010401031FFF7ACBF10B5FFF79FFF0C467F
S3150FE12EC01031FFF79BFF04F12001FFF797FF04F1A4
S3150FE12ED03001BDE81040FFF791BF00F1424303F522
S3150FE12EE08013102A10B54FEA43130AD101221A6053
S3150FE12EF000F58870FFF76AFF1031BDE81040FFF764
S3150FE12F0065BF00221A602430F7E7F0B50B46990743
S3150FE12F1089B00546144629D0082A6E4618D103F121
S3150FE12F20100718685968324603C20833BB42164682
S3150FE12F30F7D1224669462846FFF7CFFF082C0CBF8B
S3150FE12F40042208226B460021013A0CD209B0F0BDEA
S3150FE12F5003F1200718685968324603C20833BB42AA
S3150FE12F601646F7D1E5E743F8041BEDE70093009921
S3150FE12F7009B0BDE8F040FFF7B0BF436823F01F0388
S3150FE12F800E290BD8DFE801F008080808080B0B0B30
S3150FE12F90080808080B0B0B001943416070471943EA
S3150FE12FA041F01001F9E770B505460E461446FFF7F5
S3150FE12FB006FF296881EA040202EA06044C402C6006
S3150FE12FC0BDE87040FFF7FFBE2DE9F04F0C780CB965
S3150FE12FD002234360002343624B78CA7891F802B02B
S3150FE12FE08D7A91F808A091F8069091F80780002B59
S3150FE12FF04B7A4FEA024214BF4FF0400E4FF0000EEC
S3150FE1300042EA0B62002B14BF8023002342EA0A0235
S3150FE13010002DCD7A42EA892214BF4FF0200C4FF0F2
S3150FE13020000C42EA0822002D0D7B42EA0E0214BF84
S3150FE13030102700271343002D0D79497943EA0C0335
S3150FE1304014BF082600263B43002D14BF4FF400554D
S3150FE1305000253343002914BF4FF0805100212B4344
S3150FE130600B4303600CB101234360BDE8F08F2422CB
S3150FE13070002100F0FEB870B515460E462422002158
S3150FE13080044600F0F6F8C02D0DD0B5F5807F01D0DE
S3150FE13090802D0BD12046EA0840F8045B314600F05B
S3150FE130A0DAF8002070BD6FF07100FBE76FF01F00DB
S3150FE130B0F8E72DE9F04F2DED028B85B008EE903A4A
S3150FE130C001908B46164652B11568019B1B68802B02
S3150FE130D003D0B3F5807F40F0A98000270DE01546B8
S3150FE130E0F3E7B5B1119B109ADB5D525D5340129A2E
S3150FE130F00135D35505F00F0501375F45F1D3002EA5
S3150FE1310000F097803560002005B0BDEC028BBDE87D
S3150FE13110F08FFFF7CFFA4FF4404345600360044663
S3150FE13120FFF74DFE019951F8043B802B0CBF0822A6
S3150FE13130102280462046FFF7E8FE04F18403184685
S3150FE1314018EE901A08EE103AFFF76CFE4046FFF7BD
S3150FE131503AFE119BABEB070803EB0709129B28F02D
S3150FE131600F0803EB070A09EB080291451DD1119BE5
S3150FE13170B84403EB0809129B9844119B052203EB14
S3150FE131800B0A0323D14531D1FFF719FE18EE901A39
S3150FE13190074618EE100AFFF762FE3846FFF713FEF1
S3150FE131A02046FFF791FA5F46A7E74823A360052379
S3150FE131B0A36023699907FCD40323A3600392FFF766
S3150FE131C0FEFD4946029004F1A000FFF72BFE5146A2
S3150FE131D004F18000FFF743FE029B1846FFF7F3FD6C
S3150FE131E009F11009039A0AF1100ABEE79DB94821C0
S3150FE131F0A160A26021698A07FCD4A360FFF7DFFD16
S3150FE132001099074604F18000FFF729FE3846FFF7CC
S3150FE13210DAFD05220323109819F8011B405D0135EC
S3150FE13220414008F8011B05F00F05ABE76FF02000F1
S3150FE132306AE7304668E710B501390244904201D199
S3150FE13240002005E0037811F8014FA34201D0181BC6
S3150FE1325010BD0130F2E70A44914200F1FF3300D18C
S3150FE13260704710B511F8014B03F8014F9142F9D1AF
S3150FE1327010BD02440346934200D1704703F8011B88
S3150FE13280F9E70000F8B500BFF8BC08BC9E467047E9
S3150FE13290F8B500BFF8BC08BC9E46704700000000B9
S3150FE132A0110AE10F00000000390AE10FB814B6F177
S3150FE132B0E0CFF3ADB7DD25C9FA79B713000000000A
S3150FE132C007B0CD5E0200000002000302502D0000A0
S3150FE132D00000000000001000F70010005129E10F77
S3150FE132E05529E10FE50AE10F7529E10FA529E10F4F
S3150FE132F000000000DF29E10F552AE10F0000000071
S3150FE13300000000004B29E10F13B779FAC925DDB7A4
S3150FE13310ADF3CFE0F1B614B80102000002000000F0
S3150FE133204C35E10F400000000200030200000000EF
S3150FE133300000000000000000000000000000000097
S3150FE133400000000000000000000000000000000087
S3150FE1335000000000000000000400000700000D104F
S3150FE1336013001A202630384048000000EB17A60359
S3150FE133700201000003000000FA0606FA0D04000040
S3150FE1338003000000F40A0AF405050000010000003D
S3150FE13390F50909F50307000001000000F60808F634
S3150FE133A00608000000000000FE0101FE080800000B
S3150FE133B000000000FD0303FD0A0800000000000005
S3150FE133C0F90707F90E09000002000000F70A0AF7EC
S3150FE133D00F0B000003000000FC0404FC0B0C0000C3
S3150FE133E0030000002000000000010000050C0000B2
S3150FE133F0FFFFFFFFFFFFFFFFFFFFFFFF00000000E3
S3150FE13400000000000000000001000000FFFFFFFFC9
S3150FE13410512563FCC2CAB9F3849E17A7ADFAE6BC80
S3150FE13420FFFFFFFFFFFFFFFF00000000FFFFFFFFB2
S3150FE1343096C298D84539A1F4A033EB2D817D037758
S3150FE13440F240A463E5E6BCF847422CE1F2D1176BF3
S3150FE13450F551BF376840B6CBCE5E316B5733CE2BC6
S3150FE13460169E0F7C4AEBE78E9B7F1AFEE242E34FF5
S3150FE134706A09E667BB67AE853C6EF372A54FF53A0F
S3150FE13480510E527F9B05688C1F83D9AB5BE0CD193B
S3150FE1349080000000000000000000000000000000B6
S3150FE134A00000000000000000000000000000000026
S3150FE134B00000000000000000000000000000000016
S3150FE134C00000000000000000000000000000000006
S3150FE134D000000F400000000000040F400100000053
S3150FE134E0EC34E10F0810002018000000F00F100374
S3150FE134F0000000008F1000201300000009000000FB
S3150FE13500000100000202000013000000F00F10039B
S3150FE13510000000008F1100201300000009000000D9
S3150FE135200002000001010000D3FFFFFFF07F103022
S3150FE135308F12002000000000000000000000014093
S3150FE13540004204003109E10F0D09E10F90EB1EC2B4
S5030332C7
S70500000000FA
