S0270000626F6F746C6F616465722D756172742D62676170692D736563757265626F6F742E73333721
S3150FE1080008100020D726E10FD526E10F4529E10F84
S3150FE10810D526E10FD526E10FD526E10FD526E10F36
S3150FE10820D526E10FD526E10F9032E10FD526E10F5F
S3150FE10830D526E10FD832E10FD526E10FD526E10F07
S3150FE10840D526E10FD526E10FD526E10FD526E10F06
S3150FE10850D526E10FD526E10FD526E10FD526E10FF6
S3150FE10860D526E10FD526E10FD526E10FD526E10FE6
S3150FE10870D526E10FD526E10FD526E10FD526E10FD6
S3150FE10880D526E10FD526E10FD526E10FD526E10FC6
S3150FE10890D526E10FD526E10FD526E10FD526E10FB6
S3150FE108A0D526E10FD526E10FD526E10FD526E10FA6
S3150FE108B0D526E10FD526E10FD526E10FD526E10F96
S3150FE108C0D526E10FD526E10FD526E10FD526E10F86
S3150FE108D0D526E10FD526E10FD526E10FD526E10F76
S3150FE108E0D526E10FD526E10FD526E10FD526E10F66
S3150FE108F0D526E10FD526E10FD526E10FD526E10F56
S3150FE10900D526E10FD526E10FD526E10F10B5054C1A
S3150FE10910237833B9044B13B10448AFF300800123B5
S3150FE10920237010BD6810002000000000B034E10F05
S3150FE1093008B5034B1BB103490348AFF3008008BD6C
S3150FE10940000000006C100020B034E10F064B0748A1
S3150FE10950DA1C121AC11E22F00302994288BF002245
S3150FE10960034902F060BC00BF6810002008100020A8
S3150FE10970BC34E10F064B0748DA1C121AC11E22F0EE
S3150FE109800302994288BF0022002102F05ABC00BF40
S3150FE109901013002068100020044B054A9A60D3F823
S3150FE109A0882042F47002C3F88820704700ED00E01A
S3150FE109B00008E10F10B5154B0FCBE0B001AC84E8A1
S3150FE109C00F002822002105A802F03BFCFF23942209
S3150FE109D000213BA88DF8153002F033FC48220021A7
S3150FE109E00FA802F02EFC6822002121A802F029FCB3
S3150FE109F0202321AA0FA93BA802F01FF922463BA902
S3150FE10A0005A801F0B5FE60B010BD00BF6C32E10F75
S3150FE10A1070B4084DD5F828582E698642034606D894
S3150FE10A206C6913449C4202D370BC01F051BF70BC98
S3150FE10A30704700BF0000E10F30B51446154A936ABF
S3150FE10A401D68154B9D4285B021D100F5004310F588
S3150FE10A50004F03931BD2039BB3F5801F17D2039B62
S3150FE10A60C3F58013A34212D350B9D2F828385A6985
S3150FE10A70B2F5004F04D91869019101F0F2FF01991E
S3150FE10A800398224605B0BDE8304001F021BF05B01D
S3150FE10A9030BD00BF0000E10FAD1007B0F0B5421E4B
S3150FE10AA0D11C85B0034619D80D4C6E4604F11007DB
S3150FE10AB020686168354603C50834BC422E46F7D136
S3150FE10AC00DF10F010F3311F8010912F8014F8442AD
S3150FE10AD004D19A42F7D1012005B0F0BD0020FBE722
S3150FE10AE07C32E10F70B5036803F16043B3F5003F64
S3150FE10AF0A0B0044646D8244A4368D2F82828166996
S3150FE10B009E423FD8B3F5801F3CD8456B06F14003B3
S3150FE10B10AB4237D8B5F5801F34D840F20463284687
S3150FE10B200593FFF7BBFF58B3284601F0F3FE38B341
S3150FE10B306B69012B26D1AD69AE4223D8AC4221D8E0
S3150FE10B40B5F5801F1ED806A802F0D4F82A1B214658
S3150FE10B5006A802F0D9F806A802F0D8F800F0FCFED4
S3150FE10B60039000F0FDFE039B009005F1200229465C
S3150FE10B7006A800F0B1FE05900598B0FA80F040099D
S3150FE10B8020B070BD0020FBE70000E10F08B54FF084
S3150FE10B90FF3200F087FE044B984203D140F2092061
S3150FE10BA000F0D2F8002008BDE320BBDE024BD3F8FC
S3150FE10BB028389868704700BF0000E10F2C4B0122DF
S3150FE10BC010B55A6401F05AFD2A4B90B94AF6E8522C
S3150FE10BD0C3F89021D3F8982142F00402C3F8982183
S3150FE10BE0C3F89001D3F8642142F40052C3F86421AB
S3150FE10BF001E00128F6D0204A136A23F4441343F4A3
S3150FE10C0088131362A2F58042136843F4807313606D
S3150FE10C10184BD3F8A42142F4F842C3F8A4215B6838
S3150FE10C2001F082FE00F06EF801F060FD01F060FD6B
S3150FE10C3018B14FF4017000F087F8FFF7BBFE0446D9
S3150FE10C4001F058FD1CB140F203739C4203D140F20F
S3150FE10C50012000F079F8A4F20574012C94BF40F25B
S3150FE10C6003204FF4017000F06FF8002010BD00BFB4
S3150FE10C7000000E4000300E4000400E4013B51F4BF2
S3150FE10C8001248DF806408DF807405B685B0510D5AA
S3150FE10C9000F078F8A0F2022080B2072809D804FA0A
S3150FE10CA000F010F0C90F1EBF00238DF806308DF846
S3150FE10CB0073000246368013307D14FF4027000F067
S3150FE10CC037F88DF806408DF807409DF807305BB190
S3150FE10CD00020FFF707FF8DF806009DF806301BB9D8
S3150FE10CE04FF4027000F024F89DF8063023B1044B5F
S3150FE10CF00020986001F01CFE02B010BD00500E40BE
S3150FE10D0000ED00E0024B4CF23C325A80704700BFD7
S3150FE10D1000000020054B5B8823F00F034AF6C03035
S3150FE10D209BB21B1A58425841704700BF0000002082
S3150FE10D30044A08B51080FFF7EDFF10B94FF20F0324
S3150FE10D40538008BD0000002008B5FFF7F1FF0A4AFE
S3150FE10D50136823F4E06343F400731360BFF34F8F1B
S3150FE10D600649074BCA6802F4E0621343CB60BFF34F
S3150FE10D704F8F00BFFDE700BF00500E4000ED00E0D2
S3150FE10D800400FA05094B5A884FF20F018A4201D145
S3150FE10D90188870473AB91B88012B40F2022018BF19
S3150FE10DA04FF4007070474FF4007070470000002059
S3150FE10DB0014B1888704700BF000000201FB5124B8A
S3150FE10DC01A6842F480121A60D3F8C02042F0010289
S3150FE10DD0C3F8C02000F0A6F94FF47A23B0FBF3F085
S3150FE10DE00A4B0D2218600021684602F02AFA012308
S3150FE10DF08DF8003006480A2369468DF8023002F075
S3150FE10E00CBF805B05DF804FB00400E4084100020DE
S3150FE10E100080014030B50D4D0D4A2D68536A15FB23
S3150FE10E2000F09CB210FA83F00A4B80B21880A04210
S3150FE10E30094B2CBF002401241C7011B1536A834264
S3150FE10E40FCD101235361936130BD00BF84100020B3
S3150FE10E50008001408C1000208E100020094B0A4AB9
S3150FE10E60D868127800F001000AB108B9704738B9AD
S3150FE10E70586A064B1B88984234BF00200120704701
S3150FE10E8001207047008001408E1000208C10002059
S3150FE10E9070B5394E394A3368394D3A4803F1340161
S3150FE10EA091601C3301216B606B6201F0A7FA364842
S3150FE10EB0012101F0A3FA01214FF4AA4001F09EFAB4
S3150FE10EC07068012101F09AFA3368304940F6AA6257
S3150FE10ED00024DA6041F205021C605C665A609C6090
S3150FE10EE05C61DC6499645C679C67DC675A601A68CD
S3150FE10EF01A6000F017F9264A00F5E1435B014FF45A
S3150FE10F00E110B3FBF0F3203B02EAC303326821465B
S3150FE10F10536120460123042201F0B0FA01231A4658
S3150FE10F201946204601F0AAFA3368032205219C6788
S3150FE10F305A67D960174B4FF0E06119604FF44021C2
S3150FE10F401C62DC625C63DC66C3F880100131C3F8B6
S3150FE10F508840C3F88440C3F89850C3F8B0100E49DF
S3150FE10F60C3F8B840C3F8B4408A620122DA6303F1E9
S3150FE10F70C06302229A6070BD58100020481000200D
S3150FE10F80081000204041050000350A00F9FF010075
S3150FE10F90F8FF7F0000200E4000200E44084B986AB0
S3150FE10FA010F0020006D003F1806302221A629A6200
S3150FE10FB0012070471B6A9B07FBD4024B0222F6E71F
S3150FE10FC000200E4000200E447F2938B50446154611
S3150FE10FD024D8FFF7E3FF20B3134B20466218904264
S3150FE10FE00DD1124B1A88013961F30E121A80104A8C
S3150FE10FF0C2F8C8300223D36335B9002038BD10F8E3
S3150FE11000014B03F8014BEAE7FFF7C8FF0028FBD0D6
S3150FE11010084B1A6813699B06FCD5EEE741F20310FC
S3150FE11020ECE741F20620E9E78F1200204810002095
S3150FE1103000200E40581000200E4BD3F8940040F2DA
S3150FE11040011398420FD040F2022398420DD00A4B7A
S3150FE11050C01A0A4B1B6883420AD02ABFC3F5007335
S3150FE11060C01AC01870470020F3E74FF48070F0E71D
S3150FE110700020704700200E408F10002088100020BE
S3150FE110802DE9F843089F04460D461646F3B9FFF7D7
S3150FE11090D3FF214ADFF888E01368204FA84228BF23
S3150FE110A0284604EB000C00214FF001084FF002092E
S3150FE110B064451DD101B1136006B1306041F20423DD
S3150FE110C0A84234BF18460020BDE8F8832FB1FFF7D9
S3150FE110D075FE00213846FFF79DFEFFF7ADFFA842EB
S3150FE110E0D5D2002FF9D0FFF7B9FE0028F5D0CEE71C
S3150FE110F01EF8031004F8011B0133B3F5007F04D189
S3150FE11100C7F8089000230121D2E7B3F5807F08BF26
S3150FE11110C7F80880F7E700BF8810002000200E46C9
S3150FE111208F10002030B51B4B87B001AA03F11005D4
S3150FE1113018685968144603C40833AB422246F7D1FF
S3150FE111401B78154A2370D2F8943003F00703022B6C
S3150FE111501BD01369C3F30443102B18D818336B4410
S3150FE111600E4813F8143C0E4943438B4203D11269DF
S3150FE11170C2F34162D340084AD2F80001C0F304201A
S3150FE111800130B3FBF0F007B030BD064BF3E7064B8A
S3150FE11190F1E700BF2833E10F00400E4040420F0058
S3150FE111A000093D0000F04902C0EA2101074B30B5C5
S3150FE111B000220C2404FB02F1CD58854201D15818C7
S3150FE111C030BD01320A2AF5D10020F9E73C33E10FB0
S3150FE111D070B5002386B0CDE9013308230093154698
S3150FE111E004AA044601F0A8FC41F203029042064626
S3150FE111F04FF0080323D194F8432052B11A46E06C1D
S3150FE1120004A901F081FD04AAA06C0823114601F09F
S3150FE1121060FD059A6A6094F84320049B2B6052B9EE
S3150FE11220084A934207D0084A934204D0E06C082259
S3150FE1123004A901F069FD6B682365002363653046F8
S3150FE1124006B070BDF70A0AF7FC0404FC2DE9F74373
S3150FE11250044658680E4617469846002843D08B0732
S3150FE1126044D1244B206ED3F828381B6902EB000CCE
S3150FE112701D1D65451CD81C33984219D28542294656
S3150FE1128038BF0146081AC5F1680506EB000968186B
S3150FE112909C4594BFC1EB0C02C1EB030220444946C6
S3150FE112A0019201F0C0FF019AFF21484601F0C9FF03
S3150FE112B0226E48F204039A420BD8B81848F2070196
S3150FE112C0884206D99B1AF258C4F880204FF0FF32B4
S3150FE112D0F250206E3A46D8E900353146A847226EDC
S3150FE112E03A442266002003B0BDE8F08341F20200E2
S3150FE112F0F9E700BF0000E10F2DE9F04FA7B0CDE907
S3150FE1130013239846309F002304460E461593159AEC
S3150FE11310424501D30020C9E094F84630102BF7D8A7
S3150FE11320DFE813F05E00AC00A60045002C001401C7
S3150FE113308E012C0086012C0086014302B8021100B2
S3150FE113400A010D02B6024FF00009636D0F2B00F291
S3150FE11350938010230125CDE9003516AA4023CDF858
S3150FE11360089013A9204601F0E7FB0B900B9A41F287
S3150FE1137003039A4200F0D2800B9B3DE04FF0010947
S3150FE11380D4E91435AB4277D95B1BDDE91452AD1ABB
S3150FE1139094F84020032B154440F25E81032D00F2B1
S3150FE113A05E8113A9204601F0A6FB002324E0A64D9A
S3150FE113B0636D072B00F2D7800123CDE901330823B3
S3150FE113C0009316AA402313A9204601F0B5FB0D9011
S3150FE113D00D9A41F203039A4200F0EF800D9B0BE069
S3150FE113E016AA13A92046FFF7F3FE0890089B41F2D0
S3150FE113F00302934207D0089B0793079A41F203032F
S3150FE114009A4284D051E0179A2265002216996265B5
S3150FE114108E4A914240F0E380022284F84620EBE7C0
S3150FE1142008230120CDE9003016AA4023029513A91E
S3150FE11430204601F081FB0990099A41F203039A4292
S3150FE1144001D0099BD8E7169B03F07F43B3F1407FA9
S3150FE1145005D0102384F8463041F20903CCE7179BF8
S3150FE11460D90706D594F8423043F0010384F84230A8
S3150FE114700025636D072BD3D90123DEE016AA13A945
S3150FE114802046FFF7A5FE0A900A9D41F203039D420E
S3150FE114900FD00A9D0795079A41F203039A423FF44B
S3150FE114A036AF079B0BB10023F370079827B0BDE862
S3150FE114B0F08F1698FFF77AFE28B9102384F8463095
S3150FE114C041F20805E6E7437994F890209A4205D967
S3150FE114D0102384F8463041F20E05DBE702685C49DA
S3150FE114E08A4205D00289D20748BF013384F890308A
S3150FE114F094F84230D9070DD5028994F84330920713
S3150FE1150006D53BB1102384F8463041F20105C1E718
S3150FE11510002BF7D0037984F84630BBE7D4F848B00F
S3150FE1152000F022FA8023CDE9000317AA2B46022108
S3150FE11530584601F0AEFB08E7226DA26501230022B2
S3150FE1154084F84330E26584F84630E0E600213C2238
S3150FE1155017A8169101F075FE0125D4E914329342CD
S3150FE1156004D884F8465041F2030345E7009316AADF
S3150FE115704023CDE9015513A9204601F0DDFA0C9080
S3150FE115800C9A41F203039A4201D00C9B34E70DF119
S3150FE11590580C06F108030DF1700E624603CA724547
S3150FE115A018605960944603F10803F6D11068186084
S3150FE115B0337843F001033370CFE733782548179A31
S3150FE115C043F002033370169B7360236D083B73621E
S3150FE115D0AB6A1968814205D1DB68934205D01023C6
S3150FE115E084F8463041F2010306E7042384F84630D6
S3150FE115F094F8453043F0010384F8453000236366E0
S3150FE11600D6E60423009316AA4023CDE9015513A983
S3150FE11610204601F091FA0E900E9A41F203039A4297
S3150FE1162001D00E9BE8E6236D042B02D9169B2366A8
S3150FE116300125636D032BE4D9092384F8463092E73C
S3150FE116400023636607237EE70000E10FEB17A6038E
S3150FE11650F90707F9AD1007B0AB423FF6A2AE402B43
S3150FE1166028BF40239D4228BF1D46032D88BF25F085
S3150FE116700305402316AACDE90199009513A9204642
S3150FE1168001F05AFA0F900F9A41F203039A4201D0F1
S3150FE116900F9BB1E694F846A0BAF1070F04D1D7F83C
S3150FE116A008B0BBF1000F1BD1042DC5F1040B16AB2E
S3150FE116B088BF4FF0000B5A46FF21581901F0C1FDC3
S3150FE116C0BAF1090FAB4414D13B465A4616A9204647
S3150FE116D0FFF7BCFD0F900F9B002B3FF451AED7E701
S3150FE116E02A463B68606E16A9D847626E2A4462663F
S3150FE116F046E6BAF1040F7FF443AE737899077FF5A7
S3150FE117003FAEFB68002B3FF43BAE626E042A0BD86B
S3150FE117100BEB0203062B07D917AB9B1A1A68C4F812
S3150FE1172084204FF0FF321A60FD683B68606E5A46BF
S3150FE1173016A9A847626E0BEB0205656620E694F8DB
S3150FE117404450002D7FF498AE4023009316AACDE9BD
S3150FE11750015513A9204601F0EFF91090109A41F2C5
S3150FE1176003039A4201D0109B46E6E06C01F0CEFAF4
S3150FE11770D4F84C9000F0F0F8059000F0F1F8059BE5
S3150FE1178000901EAA16A9484600F0A6F81090109BE5
S3150FE1179033B11023F57084F8463041F206032BE698
S3150FE117A00123F37084F8443066E600234FF0040812
S3150FE117B0CDE9013316AA4023CDF8008013A92046BF
S3150FE117C001F0BAF91190119A41F203039A4202D04C
S3150FE117D0119B079369E6D4F88820304B9A4205D0DE
S3150FE117E0102384F8463041F20503F2E70123F37043
S3150FE117F094F84530DA0707D5FD682DB13B684246C7
S3150FE1180004F184014046A84794F845309B0707D574
S3150FE11810FD682DB104223B6804F184011046A84707
S3150FE11820236E73B37D6865B34FF0FF3304F1800127
S3150FE11830042212A81293059101F0E5FC28B13B6849
S3150FE118400599042248F20400A84704F16809042225
S3150FE11850494612A801F0D7FC98B1114BD3F82838B5
S3150FE11860D3F810801422D7E9003504F16C0108F1A1
S3150FE118700800A8470422D7E90035494608EB0200DC
S3150FE11880A8470123B3700C2384F846300023A0E761
S3150FE118900023F37041F2070008E600BFE320BBDE49
S3150FE118A00000E10F10B50A4CD4F8B03043F0400315
S3150FE118B0C4F8B030074B01241C6001449A605C60A8
S3150FE118C0884201D1D86910BD10F8012B9A61F7E76B
S3150FE118D000400E4000C001402DE9F041A2B00E4696
S3150FE118E0DDF8A08015461F46044670B369B362B3AF
S3150FE118F05BB3B8F1000F28D01548012100F07EFD4A
S3150FE119004022002102A801F09CFC394602A801F011
S3150FE1191010FA12AF41460AA801F00BFA4022002154
S3150FE11920384601F08EFC3146384601F002FA294677
S3150FE119301AA801F0FEF90748009702AB20222146CB
S3150FE1194000F0C8FA22B0BDE8F08140F20160F9E794
S3150FE1195000050A0000000F40004870474A43E00FB8
S3150FE11960004870476A43E00F004870478642E00F30
S3150FE119702DE9F04104461D460F46904600211C22F3
S3150FE11980181D01F05EFC01232B6001F000FA4146C0
S3150FE11990064604F5807001F067FA394604F5827060
S3150FE119A004F5847701F060FA2946384601F05CFACE
S3150FE119B0304601F0F0F90D4E0D4B0E4A0E490F4828
S3150FE119C023656369DB010BD501F0E1F9294604468D
S3150FE119D0384601F051FA2046BDE8F04101F0DBB996
S3150FE119E022656165A065E665EBE700BF3938010061
S3150FE119F039398401D02484FC1C82FED88B1C81A04A
S3150FE11A002DE9F04F2DED028B8BB004469A460D462C
S3150FE11A10164601F0BCF904F5827705F1400211464D
S3150FE11A2004F5867B80463846019201F01DFA314670
S3150FE11A30584601F019FA04F58873184606F12001A4
S3150FE11A40009301F011FA404601F0A5F943492165EA
S3150FE11A504349616501264349A165E66501F097F9B9
S3150FE11A6029468146384601F0FFF904F5847805F1F8
S3150FE11A7020031946404608EE103A01F0F5F9019AAE
S3150FE11A80009B1146184601F0EFF9484601F083F93C
S3150FE11A90354B2365354B6365A66501F078F904F59A
S3150FE11AA0807900900AF14001484601F0E5F902A973
S3150FE11AB0404601F0E1F9009B184601F06CF901F09F
S3150FE11AC066F929460090584601F0CEF9009B184673
S3150FE11AD001F061F9264B2365264B63656FF4267298
S3150FE11AE0A3F5FE231344A365E66501F050F918EE5D
S3150FE11AF0101A0546384601F0B7F9284601F04BF9B9
S3150FE11B001D4B23651D4B6365A66501F040F95146F3
S3150FE11B100546404601F0B0F9284601F03CF901F0DF
S3150FE11B2036F902A90546384601F09EF9284601F035
S3150FE11B3032F9134B2365134B6365A66501F027F95C
S3150FE11B400AF120010446484601F096F9204601F0D4
S3150FE11B5022F90BB0BDEC028BBDE8F08F8AD11C8167
S3150FE11B60D91C83D11C81E11CD01482CB1481E11CD9
S3150FE11B708CE11C811C84D91CE014D8141482E11C5D
S3150FE11B8084D31482D11CE0142DE9F041044690B0C0
S3150FE11B900F46244E0521904601F0D7F90023236025
S3150FE11BA0236363630FCE08AD0FC596E80F0085E893
S3150FE11BB00F0008AA6B4607F140012046FFF7D8FE52
S3150FE11BC001F0E5F804F586760546694604F5827077
S3150FE11BD001F04AF93946304601F046F907F120019D
S3150FE11BE004F5887001F040F9284601F0D4F80E4B60
S3150FE11BF023650E4B63650E4BA3650123E36501F088
S3150FE11C00C6F808F12001054604F5807001F034F9B4
S3150FE11C104146304601F030F9284601F0BCF810B0E4
S3150FE11C20BDE8F081C033E10F8AD11C81D91C83D184
S3150FE11C301C81E11C2DE9F04FA5B01D460446CDE907
S3150FE11C40001205A81C22002101F0FBFA4FF0010852
S3150FE11C5020220021284605F12007CDF8108005F155
S3150FE11C60400A01F0EEFA20220021384601F0E9FAA6
S3150FE11C7020220021504601F0E4FA0521204601F029
S3150FE11C8064F900232360FF262363636372110199CD
S3150FE11C9006F01F0351F8221008FA03F30B423246FE
S3150FE11CA006F1FF3601D0164601E0002EEED101F026
S3150FE11CB06EF804F58273394680461846029301F0B1
S3150FE11CC0D3F8404601F067F8764B774A23656265AC
S3150FE11CD0764AA26501F05BF804F5807914A980468E
S3150FE11CE0484601F0C9F8404601F055F801F04FF8C2
S3150FE11CF029468046484601F0B7F8404601F04BF8D1
S3150FE11D006B4A6C4B22654FF486726365A26501F0EF
S3150FE11D103EF804F5867883460CA9404601F0ACF807
S3150FE11D201CA9484601F0A8F8584601F034F801F02D
S3150FE11D302EF8029B039351468346184601F094F819
S3150FE11D40584601F028F85C4B23650123636501F0E2
S3150FE11D501EF804F5847B29460290584601F084F873
S3150FE11D60029A104601F017F8544A226502F1D94258
S3150FE11D7002F5DE1202F595626265A2F5861201237E
S3150FE11D80A2F2BA42A265E36501F001F81CA902903D
S3150FE11D90584601F069F80CA9404601F065F8029A38
S3150FE11DA0104600F0F8FF464A2265464A6265464A02
S3150FE11DB0A26500F0ECFF2946029004F5887001F068
S3150FE11DC05BF8029A104600F0E6FF00F0E0FF039B96
S3150FE11DD002903946184601F047F85846514601F048
S3150FE11DE043F814A9404601F03FF8029A104600F075
S3150FE11DF0D2FF364B2365364B636500F0C8FF51467C
S3150FE11E008346484601F038F83946404601F034F842
S3150FE11E10584600F0C0FF012106F01F0301FA03F354
S3150FE11E207211019951F82220134211D0284600F080
S3150FE11E3070FF38B1384600F06CFF18B1504600F02C
S3150FE11E4068FF58B9009A2B4629462046FFF7D8FD79
S3150FE11E50013EBFF42CAF25B0BDE8F08F009BAC4639
S3150FE11E6003F1200E18685968624603C208337345B9
S3150FE11E709446F7D1BC4603F1200E186859686246BD
S3150FE11E8003C2083373459446F7D10DF1100EBEE840
S3150FE11E900F0005F1400CACE80F009EE80F008CE84F
S3150FE11EA00F00D5E78AD11C81821CC00C0C0C0100F6
S3150FE11EB0C00C0C83D91C83D88AD11C83DA0C81140C
S3150FE11EC08CE11CD01484E31482D11C01D81483D184
S3150FE11ED01CC00C012DE9F04FBBB00D4604460021A5
S3150FE11EE093460AA86022449E994601F0AAF9602218
S3150FE11EF0002122A801F0A5F9002D00F01C81B9F10E
S3150FE11F00000F00F01881002E00F01581BBF1000FD4
S3150FE11F1040F311810023236023636363636843F016
S3150FE11F20100363600C21204601F00FF86368DFF8B8
S3150FE11F3024C223F4406343F400636360636823F4CC
S3150FE11F40407343F400736360BCE80F002AAF0FC719
S3150FE11F509CE80F0087E80F0000F019FF04F584787D
S3150FE11F6082463146404604F5867700F07DFF2AA981
S3150FE11F70384600F079FF504600F00DFF6F4A2265B3
S3150FE11F80012363656369DA0104D440F202603BB071
S3150FE11F90BDE8F08F311F082351F8040F002800F038
S3150FE11FA0C28000F0F4FE06F1200A01905146404648
S3150FE11FB000F05AFF2AA9384600F056FF019B184652
S3150FE11FC000F0E9FE01235D4A226563656369DB0182
S3150FE11FD0DBD55246082352F8041B002900F0A780EF
S3150FE11FE02022002132A801F02CF9BBF1200FA8BF66
S3150FE11FF04FF0200B0BF1FF32013D22F0030303F506
S3150FE1200094736B4402F0030C15F8010F53F8601C3F
S3150FE120104FEACC0C00FA0CF00843013A43F8600C96
S3150FE12020EBD200F0B4FE32A90546404600F01CFFA4
S3150FE12030284600F0B0FE424B236500F0A8FE04F5FA
S3150FE12040807B054632A9584600F016FF284600F078
S3150FE12050A2FE2AAA02AB51462046FFF789FC00F001
S3150FE1206096FE04F5887A054602A904F5827000F01A
S3150FE12070FBFE32A9504600F0F7FE3146384600F036
S3150FE12080F3FE284600F087FE2E4B236503F1FA4354
S3150FE12090A3F50063636500F07AFE32A90546504663
S3150FE120A000F0EAFE02A9584600F0E6FE284600F0E7
S3150FE120B072FE25490AAB32AA2046FFF7BBFD22ABDA
S3150FE120C002AA49462046FFF7B5FD0AAA1146204660
S3150FE120D0FFF75AFD22AB19460AAA2046FFF790FCF5
S3150FE120E022AA11462046FFF74FFD00F050FE0C21C4
S3150FE120F00546204600F029FF22A9404600F0B4FE2E
S3150FE121003146384600F0B0FE284600F044FE0F4B4C
S3150FE1211023650F4B6365636913F0807F40F20460BB
S3150FE1212018BF002033E7013B7FF436AF2DE7013BC4
S3150FE121307FF451AF29E740F2016028E73035DA1035
S3150FE1214030D00C0130E11C840034E10F3035DA1464
S3150FE1215039380100E033E10F2DE9F34799460A9B40
S3150FE121600C4619683F290546164642D85A68002A91
S3150FE1217041D0224A002E14BFB046904601F03F07E8
S3150FE12180091928BF5A68196024BF01325A60AFB1E5
S3150FE12190C7F1400AA24521D82946524609EB070065
S3150FE121A001F041F801230093414633464A460020A8
S3150FE121B000F086F8403C55443C44B0463F2C0CD9E0
S3150FE121C0A30900932A4633464146002000F078F8EA
S3150FE121D024F03F031D4404F03F0400272CB12246AF
S3150FE121E0294609EB070001F01EF8002002B0BDE811
S3150FE121F0F0879046C2E7DFF80480BFE74034E10F8E
S3150FE1220030B40546084611461A46DDE9023425B9CA
S3150FE1221031B1029430BCFFF79FBF024830BC704723
S3150FE122200846FBE780AFFFFF2DE9F041146886B062
S3150FE122301E46E3008DF80F30630917468DF80E3011
S3150FE122405268630B8DF80D30630D8DF80C30D300AA
S3150FE1225003EB54738DF80B3004F03F045309372C1D
S3150FE122608DF80A304FEA52334FEA525205468DF84E
S3150FE122700820CDE9001794BFC4F13802C4F1780202
S3150FE1228088468DF809300D4903460020FFF7B8FF60
S3150FE122900821434600972A460DEB0100FFF75CFF45
S3150FE122A0284605F1200350F8042B46F8042B9842F3
S3150FE122B0F9D1002006B0BDE8F08100BF6034E10F2F
S3150FE122C02DE9F04F99B00546884691461F4600F035
S3150FE122D0DDF90446002D7DD1042303604560C56415
S3150FE122E043686A4623F44063436008F11C010563C2
S3150FE122F0A8F104034563904653F8040F00BA8B42E5
S3150FE1230042F8040BF8D100F042FD4146054604F5CB
S3150FE12310827000F0A9FD284600F03DFD2F4B2365A5
S3150FE123204FF0000A09F00306229A924527D1BB071F
S3150FE1233004F5807643D000F02AFD41460546304646
S3150FE1234000F09AFD284600F026FD08AD3A464346D1
S3150FE1235003CBAB4210605160984602F10802F6D109
S3150FE12360204600F09DF93B1F1C3753F8042F12BA94
S3150FE12370BB421A60F9D1002019B0BDE8F08F09EB25
S3150FE123808A1566B10DF1200C05F1400E28686968D2
S3150FE12390624603C2083575459446F7D108AD00F09C
S3150FE123A0F6FC2946834604F5D27000F06DFD5846DA
S3150FE123B000F0F1FC0A4B23650AF1010AB4E700F0DC
S3150FE123C0E6FC39460546304600F056FD284600F054
S3150FE123D0E2FCC5E76FF07100CEE700BF888AC8015E
S3150FE123E0070D8101044BD3F84421D20703D4D3F867
S3150FE123F040211042FBD1704700400E4038B5C0F383
S3150FE124000323013B092B16D8DFE803F02616151532
S3150FE1241005191C151F23124C0023C0F3043513B104
S3150FE124201846FFF7DFFF04F1424404F5801405EB8C
S3150FE12430C404A400216038BD0A4C0023EDE70A4C21
S3150FE124400123EAE7094C1023E7E7094C4FF4803300
S3150FE12450E3E7084C0023E0E7074C0023DDE700BF85
S3150FE12460B0400E40C0400E40E0400E40E8400E4006
S3150FE12470F0400E4050410E4000400E4000EB400050
S3150FE12480F8B50D461F46040116463AB11648012323
S3150FE124908B402044CFB100F1C0600360072D4FF0B0
S3150FE124A00F0115D8AB00114806FA03F29940204403
S3150FE124B000F061FD46B90C4A012101FA05F5224406
S3150FE124C077B102F1C0621560F8BD00F18060E4E713
S3150FE124D0A5F108039B00064806FA03F29940E6E7E1
S3150FE124E002F18062EFE700BF0CA0004004A00040BC
S3150FE124F008A00040234B41F671311A6C10B51964EF
S3150FE1250021494C684968996841F0010199600121B7
S3150FE125101861D960D9694C0792B209D5996821F04A
S3150FE12520010199600AB100221A644FF0FF3026E0EB
S3150FE125300221D9601549D869C00700D569B9D869AB
S3150FE1254010F002000BD0996821F0010199600AB1F0
S3150FE1255000221A646FF0010011E00139EBE741B98E
S3150FE12560986820F00100986002B119646FF00200DB
S3150FE1257005E0996821F0010199600AB1186410BD6F
S3150FE125801046FCE700000E4000300E4080969800A2
S3150FE125902DE9F04F054602F16040B0F5003F03D952
S3150FE125A04FF0FF30BDE8F08FDFF8C4C02E4CDFF8F7
S3150FE125B0C490DFF8C480302606FB05C64FF4401001
S3150FE125C0C6F880000020C6F88400C6F88800C6F871
S3150FE125D0980041F67130D4F840A02064A0684FF01E
S3150FE125E0010E40F00100A0600EFA05F55BB9042279
S3150FE125F0E260A26822F00102A2601FFA8AF202B13A
S3150FE1260023641846CEE701F50060216100EA09006F
S3150FE12610C4F80CE0401AD4F81CB0984228BF18460B
S3150FE126201BF0040F4FEA9007BAD1013F3F0147F084
S3150FE126306057C6F88C700D4FC6F89020C6F89470A7
S3150FE12640DCF820702F43CCF820701027E760DCF818
S3150FE1265028703D42FBD0C8F828500144C8F82050F5
S3150FE1266002441B1AC2E700BF00000E4018000E40DD
S3150FE1267000200E4000F8FFFF00200E44024BD3F876
S3150FE12680FC00000E704700BF0081E00F024B0348CC
S3150FE126900122C3F8002670470010C84300000F401F
S3150FE126A0094B98420ED003F58063984209D1012276
S3150FE126B0064B03EBC2035A68054B13449B000022FA
S3150FE126C01A6070470022F3E700000F40A034E10FD4
S3150FE126D08005F210FEE708B5FEF75EF9FEF7CEFAD2
S3150FE126E0FEF734F9FEF746F9FEF768FA00F009B896
S3150FE126F000F009B870470179012204310330FEF782
S3150FE1270063BCFEF7C5BB00B5C3B0FEF751FBB0F531
S3150FE12710027F17D14FF484720021684600F091FDD4
S3150FE12720A0238DF8033002238DF8043001238DF8B1
S3150FE12730063046238DF80730684600238DF80830BA
S3150FE12740FFF7D9FF4FF484720021684600F079FD57
S3150FE12750A0238DF8033004238DF80430FEF726FA13
S3150FE12760CDF807006846FFF7C6FF43B05DF804FBF7
S3150FE12770F0B5ADF5097D04460E46174600214FF437
S3150FE12780847246A800F05DFD20238DF81B310223EC
S3150FE127908DF81C314FF48472002104A800F051FD2D
S3150FE127A04FF47A75FEF748FC0028FBD00123194652
S3150FE127B0009503AA0DF11300FEF762FC9DF81330A5
S3150FE127C0202BEFD10095012303AA032105A8FEF7DC
S3150FE127D057FC0028DED1039B032BDBD19DF8145068
S3150FE127E075B140F6B833009303AA012329460DF1DB
S3150FE127F01700FEF745FC0028CCD1039B9D42C9D1BA
S3150FE128009DF81530002B49D19DF81650022D0DD0AC
S3150FE12810032D1FD0012DBDD18DF81E518DF81F311E
S3150FE128208DF8203146A8FFF766FFB3E79DF817301D
S3150FE12830009706AA21463046FEF75EFD8DF81E513A
S3150FE1284028B141F20703984214BF46200020ADF8A4
S3150FE128501F01E7E7A3788DF81E51EBB1E378002B63
S3150FE128600CBF4623002346A8ADF81F31FFF743FF00
S3150FE12870A378002B8ED0E378002B8BD023789B07A0
S3150FE1288088D56568FEF792F9854283D9616A4FF477
S3150FE128900040FEF77BF97DE74623E4E7012B7FF462
S3150FE128A079AF9DF81630012B7FF474AFA37833B16E
S3150FE128B0E37823B940F20320FEF746FA6AE79DF87B
S3150FE128C01730012B0CBF40F2022040F20120F3E753
S3150FE128D0C0F30A032DE9F04105460F4616460BB93B
S3150FE128E000F0BFF805F5006424F4FF6424F0070453
S3150FE128F005EB0608A04507D8324639462846022396
S3150FE12900BDE8F04100F0B4B8204600F0AAF804F5AE
S3150FE129100064EFE7036913F0FE0F0CBF01200020FF
S3150FE1292070474FF400407047002070470020704712
S3150FE1293000231846016881F3088881F30988406806
S3150FE129408746FEE74FF40170FEF7FEB9B1F5BE7F9C
S3150FE1295010B504460FD34FF4BE72002100F071FC9F
S3150FE1296004F5827204F1BC0104F128000023BDE8ED
S3150FE12970104000F062B940F2052010BD13B50446D0
S3150FE12980009101462830FEF7B7FCC4F8780118B17B
S3150FE1299041F20703984209D1A3784BB1E27840F2AD
S3150FE129A0032040F20223002A08BF184602B010BDE9
S3150FE129B040F20120FAE72DE9F04387B00DF108095E
S3150FE129C00446DDF838800E461746002110224846A8
S3150FE129D01D4600F036FC0021C8F800101C222846DF
S3150FE129E000F02FFC32463B46CDF80090214604F12C
S3150FE129F02800FEF781FC23789A0744BF6268C8F87E
S3150FE12A000020DB0709D504F1080304F1240253F88A
S3150FE12A10041B45F8041B9342F9D12378002B40F2AE
S3150FE12A20064018BF002007B0BDE8F0834FF4BE7033
S3150FE12A30704713B504460B461046A20753BF6FEA1C
S3150FE12A4003434FF6FF7242EA03436FEA13430193DF
S3150FE12A50042324F003010DEB0302FFF799FD02B006
S3150FE12A6010BD08B5FFF746FDB0FA80F0400908BD85
S3150FE12A70072B2DE9F04105460E4614461F4602D9AE
S3150FE12A800020BDE8F08101214FF4AA40FFF7B6FC23
S3150FE12A900CB90120F5E744EA0503DA07F0D4AB07F1
S3150FE12AA026D531883A462846FFF7C3FF0028E7D1F6
S3150FE12AB0023C032C05F1020506F102060DD924F0BD
S3150FE12AC003084346324629463846FFF761FD00289B
S3150FE12AD0D6D146444544A4EB0804002CD9D031881D
S3150FE12AE03A462846FFF7A5FFB0FA80F04009C8E756
S3150FE12AF0032CE4D8F3E770B5D1E90152AA4205D226
S3150FE12B0090F840302B449B1A402B10D9002012E04D
S3150FE12B100A6890F84040D65C90F84120224402F0D2
S3150FE12B203F020133013486548B6080F840408B6855
S3150FE12B309D42EDD8012070BD2DE9F84317469E461B
S3150FE12B40D1E9012390F840C0089D9DF824909DF8A6
S3150FE12B502880D21A6244954204460E460AD9FFF7F7
S3150FE12B60CAFF002867D1102384F8463041F20200EC
S3150FE12B70BDE8F883754555D8002394F840200AB18E
S3150FE12B809D4235D1D6E90121914201D29D4241D8EB
S3150FE12B909D424DD1D4F8882029463846FEF782FE6C
S3150FE12BA0C4F88800B9F1000F04D0E06C2A46394623
S3150FE12BB000F0AAF8B8F1000F08D094F843308BB1C2
S3150FE12BC0A06C2B463A46394600F083F894F8433029
S3150FE12BD043B1E36DA26D2B449342E36524BF00231A
S3150FE12BE084F84330636D2B44636541F20300BFE71D
S3150FE12BF094F84120A25CFA5494F84120013202F094
S3150FE12C003F0284F8412094F84020013A84F84020AD
S3150FE12C100133B2E73268525CFA54B2680132B260FC
S3150FE12C200133AFE741F20100102384F846309FE705
S3150FE12C3041F20200F8E700209AE72DE9F04103F0AF
S3150FE12C402003002504464FF0FF38C0E918550F461B
S3150FE12C501646A0F8405080F84350A0F8445080F84B
S3150FE12C60465080F84230C0F888801822FF2168303C
S3150FE12C7000F0E7FAC4E91276C4F88080C4F88480DC
S3150FE12C8084F8905016B1304600F034F80020BDE8D4
S3150FE12C90F081F8B5044616461D460F4600F0CFF90A
S3150FE12CA0DDE90612204600F0CEF90023636284F8CF
S3150FE12CB038703368C4F839307368C4F83D30B36897
S3150FE12CC0C4F841302B0C6DBA84F84530A4F8465060
S3150FE12CD0F8BD30B585B00D46194600F12803CDE9AB
S3150FE12CE00152009300F1240200F1380300F0C9F913
S3150FE12CF005B030BD10B5044600F02CF82046002192
S3150FE12D00BDE8104000F02AB800F02DB8014600F0FA
S3150FE12D1037B803685BB903461C2053F8042F0AB989
S3150FE12D200438FAD10028CCBF0020012070470020DB
S3150FE12D30704738B5202204460D46002100F081FA8E
S3150FE12D4005F12003601E13F8012D00F8012FAB42A8
S3150FE12D50F9D138BD6822002100F073BA0023C0E92A
S3150FE12D6000331846704707B500F128030190009329
S3150FE12D7000F108030020FFF743FA03B05DF804FB07
S3150FE12D8002460B4600F128010830FFF74DBAEFF383
S3150FE12D90108072B6704700B962B6704784B00B689F
S3150FE12DA000934B6801938B680293CB680393009B67
S3150FE12DB00360019B0360029B0360039B0360002397
S3150FE12DC0009301930293039304B0704730B5D1E9B1
S3150FE12DD00223D1E90054056004600260036030BD4F
S3150FE12DE030B50568046802680368C1E90054C1E9B2
S3150FE12DF0022330BD7FB58B07044611D00B466D46D6
S3150FE12E0001F11006186859682A4603C20833B3421E
S3150FE12E101546F7D169462046FFF7D8FF04B070BDD6
S3150FE12E200091009904B0BDE87040FFF7CFBF30B510
S3150FE12E308B0785B00C4610D06946FFF7D1FF0D46DB
S3150FE12E40234604AC2A4603CAA242186059601546C6
S3150FE12E5003F10803F6D105B030BD0091009905B035
S3150FE12E60BDE83040FFF7BCBF10B5FFF7AFFFBDE8D8
S3150FE12E7010401031FFF7AABF10B5FFF7B1FFBDE85C
S3150FE12E8010401031FFF7ACBF10B5FFF79FFF0C46AF
S3150FE12E901031FFF79BFF04F12001FFF797FF04F1D4
S3150FE12EA03001BDE81040FFF791BF00F1424303F552
S3150FE12EB08013102A10B54FEA43130AD101221A6083
S3150FE12EC000F58870FFF76AFF1031BDE81040FFF794
S3150FE12ED065BF00221A602430F7E7F0B50B46990774
S3150FE12EE089B00546144629D0082A6E4618D103F152
S3150FE12EF0100718685968324603C20833BB421646B3
S3150FE12F00F7D1224669462846FFF7CFFF082C0CBFBB
S3150FE12F10042208226B460021013A0CD209B0F0BD1A
S3150FE12F2003F1200718685968324603C20833BB42DA
S3150FE12F301646F7D1E5E743F8041BEDE70093009951
S3150FE12F4009B0BDE8F040FFF7B0BF436823F01F03B8
S3150FE12F500E290BD8DFE801F008080808080B0B0B60
S3150FE12F60080808080B0B0B0019434160704719431A
S3150FE12F7041F01001F9E770B505460E461446FFF725
S3150FE12F8006FF296881EA040202EA06044C402C6036
S3150FE12F90BDE87040FFF7FFBE2DE9F04F0C780CB995
S3150FE12FA002234360002343624B78CA7891F802B05B
S3150FE12FB08D7A91F808A091F8069091F80780002B89
S3150FE12FC04B7A4FEA024214BF4FF0400E4FF0000E1C
S3150FE12FD042EA0B62002B14BF8023002342EA0A0266
S3150FE12FE0002DCD7A42EA892214BF4FF0200C4FF023
S3150FE12FF0000C42EA0822002D0D7B42EA0E0214BFB5
S3150FE13000102700271343002D0D79497943EA0C0365
S3150FE1301014BF082600263B43002D14BF4FF400557D
S3150FE1302000253343002914BF4FF0805100212B4374
S3150FE130300B4303600CB101234360BDE8F08F2422FB
S3150FE13040002100F0FEB870B515460E462422002188
S3150FE13050044600F0F6F8C02D0DD0B5F5807F01D00E
S3150FE13060802D0BD12046EA0840F8045B314600F08B
S3150FE13070DAF8002070BD6FF07100FBE76FF01F000B
S3150FE13080F8E72DE9F04F2DED028B85B008EE903A7A
S3150FE1309001908B46164652B11568019B1B68802B32
S3150FE130A003D0B3F5807F40F0A98000270DE01546E8
S3150FE130B0F3E7B5B1119B109ADB5D525D5340129A5E
S3150FE130C00135D35505F00F0501375F45F1D3002ED5
S3150FE130D000F097803560002005B0BDEC028BBDE8AE
S3150FE130E0F08FFFF7D3FA4FF4404345600360044690
S3150FE130F0FFF74DFE019951F8043B802B0CBF0822D7
S3150FE13100102280462046FFF7E8FE04F184031846B5
S3150FE1311018EE901A08EE103AFFF76CFE4046FFF7ED
S3150FE131203AFE119BABEB070803EB0709129B28F05D
S3150FE131300F0803EB070A09EB080291451DD1119B15
S3150FE13140B84403EB0809129B9844119B052203EB44
S3150FE131500B0A0323D14531D1FFF719FE18EE901A69
S3150FE13160074618EE100AFFF762FE3846FFF713FE21
S3150FE131702046FFF795FA5F46A7E74823A3600523A5
S3150FE13180A36023699907FCD40323A3600392FFF796
S3150FE13190FEFD4946029004F1A000FFF72BFE5146D2
S3150FE131A004F18000FFF743FE029B1846FFF7F3FD9C
S3150FE131B009F11009039A0AF1100ABEE79DB94821F0
S3150FE131C0A160A26021698A07FCD4A360FFF7DFFD46
S3150FE131D01099074604F18000FFF729FE3846FFF7FD
S3150FE131E0DAFD05220323109819F8011B405D01351D
S3150FE131F0414008F8011B05F00F05ABE76FF0200022
S3150FE132006AE7304668E710B501390244904201D1C9
S3150FE13210002005E0037811F8014FA34201D0181BF6
S3150FE1322010BD0130F2E70A44914200F1FF3300D1BC
S3150FE13230704710B511F8014B03F8014F9142F9D1DF
S3150FE1324010BD02440346934200D1704703F8011BB8
S3150FE13250F9E70000F8B500BFF8BC08BC9E46704719
S3150FE13260F8B500BFF8BC08BC9E46704700000000E9
S3150FE13270110AE10F00000000390AE10FB814B6F1A7
S3150FE13280E0CFF3ADB7DD25C9FA79B713000000003A
S3150FE1329007B0CD5E0200000002000302202D000000
S3150FE132A00000000000001000F40010002929E10FD2
S3150FE132B02D29E10FE50AE10F4D29E10F7D29E10FF7
S3150FE132C000000000B729E10F2D2AE10F00000000F1
S3150FE132D0000000002329E10F13B779FAC925DDB7FD
S3150FE132E0ADF3CFE0F1B614B8010200000000000023
S3150FE132F01C2D000040000000020003020000000048
S3150FE1330000000000000000000000000000000000C7
S3150FE1331000000000000000000000000000000000B7
S3150FE1332000000000000000000400000700000D107F
S3150FE1333013001A202630384048000000EB17A60389
S3150FE133400201000003000000FA0606FA0D04000070
S3150FE1335003000000F40A0AF405050000010000006D
S3150FE13360F50909F50307000001000000F60808F664
S3150FE133700608000000000000FE0101FE080800003B
S3150FE1338000000000FD0303FD0A0800000000000035
S3150FE13390F90707F90E09000002000000F70A0AF71C
S3150FE133A00F0B000003000000FC0404FC0B0C0000F3
S3150FE133B0030000002000000000010000050C0000E2
S3150FE133C0FFFFFFFFFFFFFFFFFFFFFFFF0000000013
S3150FE133D0000000000000000001000000FFFFFFFFFA
S3150FE133E0512563FCC2CAB9F3849E17A7ADFAE6BCB1
S3150FE133F0FFFFFFFFFFFFFFFF00000000FFFFFFFFE3
S3150FE1340096C298D84539A1F4A033EB2D817D037788
S3150FE13410F240A463E5E6BCF847422CE1F2D1176B23
S3150FE13420F551BF376840B6CBCE5E316B5733CE2BF6
S3150FE13430169E0F7C4AEBE78E9B7F1AFEE242E34F25
S3150FE134406A09E667BB67AE853C6EF372A54FF53A3F
S3150FE13450510E527F9B05688C1F83D9AB5BE0CD196B
S3150FE1346080000000000000000000000000000000E6
S3150FE134700000000000000000000000000000000056
S3150FE134800000000000000000000000000000000046
S3150FE134900000000000000000000000000000000036
S3150FE134A000000F400000000000040F400100000083
S3110FE134B0BC34E10F0810002018000000EA
S3150FE134BCF00F1003000000008F1000201300000026
S3150FE134CC09000000000100000202000013000000D9
S3150FE134DCF00F1003000000008F1100201300000005
S3150FE134EC090000000002000001010000D3FFFFFFFD
S3150FE134FCF07F10308F12002000000000000000005A
S3150FE1350C00000140004204003109E10F0D09E10F02
S7050FE126D70D
